{
  "_format": "hh-sol-artifact-1",
  "contractName": "CreditOracle",
  "sourceName": "contracts/CreditOracle.sol",
  "abi": [
    {
      "inputs": [
        {
          "internalType": "address",
          "name": "_attester",
          "type": "address"
        }
      ],
      "stateMutability": "nonpayable",
      "type": "constructor"
    },
    {
      "inputs": [],
      "name": "ECDSAInvalidSignature",
      "type": "error"
    },
    {
      "inputs": [
        {
          "internalType": "uint256",
          "name": "length",
          "type": "uint256"
        }
      ],
      "name": "ECDSAInvalidSignatureLength",
      "type": "error"
    },
    {
      "inputs": [
        {
          "internalType": "bytes32",
          "name": "s",
          "type": "bytes32"
        }
      ],
      "name": "ECDSAInvalidSignatureS",
      "type": "error"
    },
    {
      "inputs": [],
      "name": "InvalidKMSSignatures",
      "type": "error"
    },
    {
      "inputs": [
        {
          "internalType": "address",
          "name": "owner",
          "type": "address"
        }
      ],
      "name": "OwnableInvalidOwner",
      "type": "error"
    },
    {
      "inputs": [
        {
          "internalType": "address",
          "name": "account",
          "type": "address"
        }
      ],
      "name": "OwnableUnauthorizedAccount",
      "type": "error"
    },
    {
      "inputs": [
        {
          "internalType": "bytes32",
          "name": "handle",
          "type": "bytes32"
        },
        {
          "internalType": "address",
          "name": "sender",
          "type": "address"
        }
      ],
      "name": "SenderNotAllowedToUseHandle",
      "type": "error"
    },
    {
      "inputs": [],
      "name": "FhenixProtocolUnsupported",
      "type": "error"
    },
    {
      "anonymous": false,
      "inputs": [
        {
          "indexed": true,
          "internalType": "address",
          "name": "oldAttester",
          "type": "address"
        },
        {
          "indexed": true,
          "internalType": "address",
          "name": "newAttester",
          "type": "address"
        }
      ],
      "name": "AttesterChanged",
      "type": "event"
    },
    {
      "anonymous": false,
      "inputs": [
        {
          "indexed": true,
          "internalType": "address",
          "name": "previousOwner",
          "type": "address"
        },
        {
          "indexed": true,
          "internalType": "address",
          "name": "newOwner",
          "type": "address"
        }
      ],
      "name": "OwnershipTransferred",
      "type": "event"
    },
    {
      "anonymous": false,
      "inputs": [
        {
          "indexed": true,
          "internalType": "address",
          "name": "user",
          "type": "address"
        }
      ],
      "name": "ProfileUpdated",
      "type": "event"
    },
    {
      "anonymous": false,
      "inputs": [
        {
          "indexed": false,
          "internalType": "bytes32[]",
          "name": "handlesList",
          "type": "bytes32[]"
        },
        {
          "indexed": false,
          "internalType": "bytes",
          "name": "abiEncodedCleartexts",
          "type": "bytes"
        }
      ],
      "name": "PublicDecryptionVerified",
      "type": "event"
    },
    {
      "inputs": [],
      "name": "attester",
      "outputs": [
        {
          "internalType": "address",
          "name": "",
          "type": "address"
        }
      ],
      "stateMutability": "view",
      "type": "function"
    },
    {
      "inputs": [],
      "name": "confidentialProtocolId",
      "outputs": [
        {
          "internalType": "uint256",
          "name": "",
          "type": "uint256"
        }
      ],
      "stateMutability": "view",
      "type": "function"
    },
    {
      "inputs": [
        {
          "internalType": "address",
          "name": "user",
          "type": "address"
        },
        {
          "internalType": "bytes",
          "name": "abiEncodedClearTexts",
          "type": "bytes"
        },
        {
          "internalType": "bytes",
          "name": "decryptionProof",
          "type": "bytes"
        }
      ],
      "name": "finalizePublicDebtProfile",
      "outputs": [
        {
          "internalType": "uint64",
          "name": "totalCollateralUsd",
          "type": "uint64"
        },
        {
          "internalType": "uint64",
          "name": "totalDebtUsd",
          "type": "uint64"
        },
        {
          "internalType": "bool",
          "name": "isDebtHigher",
          "type": "bool"
        }
      ],
      "stateMutability": "nonpayable",
      "type": "function"
    },
    {
      "inputs": [
        {
          "internalType": "address",
          "name": "user",
          "type": "address"
        }
      ],
      "name": "getEncryptedNetValue",
      "outputs": [
        {
          "internalType": "euint64",
          "name": "netValue",
          "type": "bytes32"
        },
        {
          "internalType": "ebool",
          "name": "isPositive",
          "type": "bytes32"
        }
      ],
      "stateMutability": "nonpayable",
      "type": "function"
    },
    {
      "inputs": [],
      "name": "owner",
      "outputs": [
        {
          "internalType": "address",
          "name": "",
          "type": "address"
        }
      ],
      "stateMutability": "view",
      "type": "function"
    },
    {
      "inputs": [
        {
          "internalType": "address",
          "name": "",
          "type": "address"
        }
      ],
      "name": "profiles",
      "outputs": [
        {
          "internalType": "euint64",
          "name": "totalCollateralUsd",
          "type": "bytes32"
        },
        {
          "internalType": "euint64",
          "name": "totalDebtUsd",
          "type": "bytes32"
        },
        {
          "internalType": "uint256",
          "name": "lastUpdate",
          "type": "uint256"
        },
        {
          "internalType": "uint256",
          "name": "nonce",
          "type": "uint256"
        }
      ],
      "stateMutability": "view",
      "type": "function"
    },
    {
      "inputs": [],
      "name": "renounceOwnership",
      "outputs": [],
      "stateMutability": "nonpayable",
      "type": "function"
    },
    {
      "inputs": [
        {
          "internalType": "address",
          "name": "user",
          "type": "address"
        }
      ],
      "name": "requestPublicDebtProfile",
      "outputs": [],
      "stateMutability": "nonpayable",
      "type": "function"
    },
    {
      "inputs": [
        {
          "internalType": "address",
          "name": "_attester",
          "type": "address"
        }
      ],
      "name": "setAttester",
      "outputs": [],
      "stateMutability": "nonpayable",
      "type": "function"
    },
    {
      "inputs": [
        {
          "internalType": "address",
          "name": "newOwner",
          "type": "address"
        }
      ],
      "name": "transferOwnership",
      "outputs": [],
      "stateMutability": "nonpayable",
      "type": "function"
    },
    {
      "inputs": [
        {
          "internalType": "address",
          "name": "user",
          "type": "address"
        },
        {
          "internalType": "externalEuint64",
          "name": "collateralHandle",
          "type": "bytes32"
        },
        {
          "internalType": "bytes",
          "name": "collateralProof",
          "type": "bytes"
        },
        {
          "internalType": "externalEuint64",
          "name": "debtHandle",
          "type": "bytes32"
        },
        {
          "internalType": "bytes",
          "name": "debtProof",
          "type": "bytes"
        },
        {
          "internalType": "uint256",
          "name": "timestamp",
          "type": "uint256"
        },
        {
          "internalType": "bytes",
          "name": "signature",
          "type": "bytes"
        }
      ],
      "name": "updateProfile",
      "outputs": [],
      "stateMutability": "nonpayable",
      "type": "function"
    }
  ],
  "bytecode": "0x608034620002ba57601f620016f438819003918201601f191683019291906001600160401b03841183851017620002be578160209284926040968752833981010312620002ba57516001600160a01b0380821691829003620002ba573315620002a3575f549060018060a01b03199133838216175f55813391167f8be0079c531659141344cd1fd0a4f28419497f9722a3daafe3b4186f6b6457e05f80a3620000a7620002f2565b5046600103620001b157620000bb620002f2565b5083620000c7620002d2565b73ca2e8f1f656cd25c01f05d0b243ab1ecd4a8ffb6815273d82385dada1ae3e969447f20a3164f6213100e7560208201527377627828a55156b04ac0dc0eb30467f1a552bb03828201525b828151167f9e7b61f58c47dc699ac88507c4f5bb9f121c03808c5676a8078fe583e46497009085825416179055826020820151167f9e7b61f58c47dc699ac88507c4f5bb9f121c03808c5676a8078fe583e464970190858254161790550151167f9e7b61f58c47dc699ac88507c4f5bb9f121c03808c5676a8078fe583e464970290828254161790556001541617600155516113e590816200030f8239f35b4662aa36a7036200022257620001c6620002f2565b5083620001d2620002d2565b73f0ffdc93b7e186bc2f8cb3daa75d86d1930a433d81527392c920834ec8941d2c77d188936e1f7a6f49c127602082015273be0e383937d564d7ff0bc3b46c51f0bf8d5c311a8282015262000112565b46617a6903620002925762000236620002f2565b508362000242620002d2565b7350157cffd6bbfa2dece204a89ec419c23ef5755d815273e3a9105a3a932253a70f126eb1e3b589c643dd24602082015273be0e383937d564d7ff0bc3b46c51f0bf8d5c311a8282015262000112565b83516373cac13b60e01b8152600490fd5b8251631e4fbdf760e01b81525f6004820152602490fd5b5f80fd5b634e487b7160e01b5f52604160045260245ffd5b60405190606082016001600160401b03811183821017620002be57604052565b620002fc620002d2565b905f82525f60208301525f604083015256fe6080806040526004361015610012575f80fd5b5f3560e01c90816316700e1d146106515750806347b0c3b31461062957806358887c75146105fa578063715018a6146105a35780638927b030146105815780638da5cb5b1461055a57806393f8d19e1461044a5780639daf85ab146103e2578063bbe1562714610388578063e3436e64146101235763f2fde38b14610095575f80fd5b3461011f57602036600319011261011f576100ae61096e565b6100b6610f57565b6001600160a01b03908116908115610107575f54826bffffffffffffffffffffffff60a01b8216175f55167f8be0079c531659141344cd1fd0a4f28419497f9722a3daafe3b4186f6b6457e05f80a3005b604051631e4fbdf760e01b81525f6004820152602490fd5b5f80fd5b3461011f576060600319818136011261011f5761013e61096e565b67ffffffffffffffff919060243583811161011f57610161903690600401610a2e565b9160443584811161011f5761017a903690600401610a2e565b9160018060a01b038091165f526020926002845260405f209260405193608085018581108982111761037457604052600385528836878701376001815491826101c288610cb0565b5201549085516001101561036057816101df926040880152610fb1565b91845160021015610360576102649386938a8701527f9e7b61f58c47dc699ac88507c4f5bb9f121c03808c5676a8078fe583e46497025416905f8a604051968795869485936378542ead60e01b855260048501526102558d6102458d6064880190611035565b9084878303016024880152611068565b91848303016044850152611068565b03925af1908115610355575f91610320575b501561030e576102b87fc6366bab028b8d033cb362cfd1f2f3457ef4e92fc738b6788b90d5a7846367a0916102c5604051928392604084526040840190611035565b8281038684015286611068565b0390a1838280518101031261011f576102df818301610cbd565b926102f7856102f060408601610cbd565b9401610cd2565b928160405195168552169083015215156040820152f35b60405163cf6c44e960e01b8152600490fd5b90508281813d831161034e575b61033781836109c6565b8101031261011f5761034890610cd2565b86610276565b503d61032d565b6040513d5f823e3d90fd5b634e487b7160e01b5f52603260045260245ffd5b634e487b7160e01b5f52604160045260245ffd5b3461011f57602036600319011261011f576001600160a01b036103a961096e565b165f526002602052608060405f208054906001810154906003600282015491015491604051938452602084015260408301526060820152f35b3461011f57602036600319011261011f576103fb61096e565b610403610f57565b6001546001600160a01b0391821691829082167f59b0a2696d1ebcafa21539b85c82de9ecd511f90e43ae873d82cfad77dd602725f80a36001600160a01b03191617600155005b3461011f57602036600319011261011f576001600160a01b0361046b61096e565b165f52600260205260405f2060028101541561052857806104b691548015610515575b6104979061126e565b6001810180548015610502575b6104ad9061126e565b54905490610fb1565b80811591826104ef575b6104cb903090611163565b906104dc575b6104da9061126e565b005b506104da6104e86111cf565b90506104d1565b506104cb6104fb6111cf565b90506104c0565b506104ad61050e61121b565b90506104a4565b5061049761052161121b565b905061048e565b60405162461bcd60e51b815260206004820152600a6024820152694e6f2070726f66696c6560b01b6044820152606490fd5b3461011f575f36600319011261011f575f546040516001600160a01b039091168152602090f35b3461011f575f36600319011261011f57602061059b610f82565b604051908152f35b3461011f575f36600319011261011f576105bb610f57565b5f80546001600160a01b0319811682556001600160a01b03167f8be0079c531659141344cd1fd0a4f28419497f9722a3daafe3b4186f6b6457e08280a3005b3461011f57602036600319011261011f57604061061d61061861096e565b610a4c565b82519182526020820152f35b3461011f575f36600319011261011f576001546040516001600160a01b039091168152602090f35b3461011f5760e036600319011261011f5761066a61096e565b9060443567ffffffffffffffff811161011f5761068b903690600401610984565b60843567ffffffffffffffff811161011f576106ab903690600401610984565b9360c43567ffffffffffffffff811161011f576106cc903690600401610984565b91610e0f1942014281116108e95760a4351115610936575060018060a01b0387165f526002602052600360405f200154916040519160208301936bffffffffffffffffffffffff198a60601b1685526024356034850152606435605485015260a435607485015260948401526094835260c083019083821067ffffffffffffffff831117610374576107a79461079e94610798936040525190207f19457468657265756d205369676e6564204d6573736167653a0a3332000000005f52601c52603c5f209236916109e8565b906110a6565b909291926110e0565b6001546001600160a01b039081169116036108fd576107d96107d16107e9946107e19436916109e8565b602435610cdf565b9336916109e8565b606435610cdf565b60018060a01b0383165f526002602052600360405f2083815582600182015542600282015501918254905f1982146108e95784936001859301905580811592836108d5575b61083791611163565b82831594856108c1575b61084a91611163565b906108ae575b61085b903090611163565b9061089b575b61086c903090611163565b6001600160a01b03167fbe4ec58a792f909e102ee3d745d0c3b34a4d437a54d903c4db098d31c556422f5f80a2005b5061086c6108a761121b565b9050610861565b5061085b6108ba61121b565b9050610850565b61084a91506108ce61121b565b9150610841565b61083791506108e261121b565b915061082e565b634e487b7160e01b5f52601160045260245ffd5b60405162461bcd60e51b8152602060048201526011602482015270496e76616c6964207369676e617475726560781b6044820152606490fd5b62461bcd60e51b8152602060048201526013602482015272105d1d195cdd185d1a5bdb88195e1c1a5c9959606a1b6044820152606490fd5b600435906001600160a01b038216820361011f57565b9181601f8401121561011f5782359167ffffffffffffffff831161011f576020838186019501011161011f57565b67ffffffffffffffff811161037457604052565b90601f8019910116810190811067ffffffffffffffff82111761037457604052565b92919267ffffffffffffffff82116103745760405191610a12601f8201601f1916602001846109c6565b82948184528183011161011f578281602093845f960137010152565b9080601f8301121561011f57816020610a49933591016109e8565b90565b60018060a01b038091165f52602060028152604090815f209260028401548015908115610c99575b50610c1357835491600185018054928415610c03575b8315610bf3575b825f8051602061137083398151915294606483875416975f8a51998a948593631391547f60e01b8552600485015260248401528160448401525af1948515610be9575f95610bba575b50610af78597610aed8154855490610ea4565b9354905490610ea4565b93828615610baa575b15610b9a575b8415610b7f575b945f606492859697541688519788958694637702dcff60e01b86526004860152602485015260448401525af1928315610b7657505f92610b4c57505091565b90809250813d8311610b6f575b610b6381836109c6565b8101031261011f575191565b503d610b59565b513d5f823e3d90fd5b948394505f606492610b8f61121b565b965092505094610b0d565b9150610ba461121b565b91610b06565b9550610bb46111cf565b95610b00565b9094508281813d8311610be2575b610bd281836109c6565b8101031261011f5751935f610ada565b503d610bc8565b86513d5f823e3d90fd5b9250610bfd61121b565b92610a91565b9350610c0d61121b565b93610a8a565b91939250805f91610c2261121b565b935f8051602061137083398151915254166044875180958193639cd07acb60e01b8352600160048401528160248401525af1948515610b7657505f94610c69575b50509190565b9080929450813d8311610c92575b610c8181836109c6565b8101031261011f5751915f80610c63565b503d610c77565b4262093a7f198101925082116108e957105f610a74565b8051156103605760200190565b519067ffffffffffffffff8216820361011f57565b5190811515820361011f57565b815190919015610de4575f805160206113708339815191525460405163045fc19560e11b81526004810193909352336024840152608060448401526001600160a01b039160209184919084169082905f908290610d40906084830190611068565b6005606483015203925af1918215610355575f92610db0575b505f805160206113908339815191525416803b1561011f57604051630f8e573b60e21b815260048101839052336024820152905f908290604490829084905af1801561035557610da7575090565b610a49906109b2565b9091506020813d602011610ddc575b81610dcc602093836109c6565b8101031261011f5751905f610d59565b3d9150610dbf565b508015610e9b575f80516020611390833981519152546040516382027b6d60e01b81526004810183905233602482015290602090829060449082906001600160a01b03165afa908115610355575f91610e61575b5015610e415790565b604051630276b5d960e01b81526004810191909152336024820152604490fd5b90506020813d602011610e93575b81610e7c602093836109c6565b8101031261011f57610e8d90610cd2565b5f610e38565b3d9150610e6f565b50610a4961121b565b908115610f47575b8015610f35575b602090606460018060a01b035f805160206113708339815191525416935f60405195869485936303056db360e31b8552600485015260248401528160448401525af1908115610355575f91610f06575090565b90506020813d602011610f2d575b81610f21602093836109c6565b8101031261011f575190565b3d9150610f14565b506020610f4061121b565b9050610eb3565b9050610f5161121b565b90610eac565b5f546001600160a01b03163303610f6a57565b60405163118cdaa760e01b8152336004820152602490fd5b46600103610f8f57600190565b4662aa36a703610f9f5761271190565b617a694614610fac575f90565b5f1990565b908115611025575b8015611013575b602090606460018060a01b035f805160206113708339815191525416935f60405195869485936385362ee760e01b8552600485015260248401528160448401525af1908115610355575f91610f06575090565b50602061101e61121b565b9050610fc0565b905061102f61121b565b90610fb9565b9081518082526020808093019301915f5b828110611054575050505090565b835185529381019392810192600101611046565b91908251928382525f5b848110611092575050825f602080949584010152601f8019910116010190565b602081830181015184830182015201611072565b81519190604183036110d6576110cf9250602082015190606060408401519301515f1a906112ed565b9192909190565b50505f9160029190565b600481101561114f57806110f2575050565b6001810361110c5760405163f645eedf60e01b8152600490fd5b6002810361112d5760405163fce698f760e01b815260048101839052602490fd5b6003146111375750565b602490604051906335e2f38360e21b82526004820152fd5b634e487b7160e01b5f52602160045260245ffd5b5f80516020611390833981519152546001600160a01b031691823b1561011f57604051635ca4b5b160e11b815260048101929092526001600160a01b03166024820152905f908290818381604481015b03925af18015610355576111c45750565b6111cd906109b2565b565b5f602060018060a01b035f805160206113708339815191525416604460405180948193639cd07acb60e01b83528160048401528160248401525af1908115610355575f91610f06575090565b5f8051602061137083398151915254604051639cd07acb60e01b81525f60048201819052600560248301529091602091839160449183916001600160a01b03165af1908115610355575f91610f06575090565b604051906040820182811067ffffffffffffffff8211176103745760405260018252602036818401376112a082610cb0565b525f80516020611390833981519152546001600160a01b0316803b1561011f57604051637d6e912360e11b815260206004820152915f9183918290849082906111b3906024830190611035565b91907f7fffffffffffffffffffffffffffffff5d576e7357a4501ddfe92f46681b20a08411611364579160209360809260ff5f9560405194855216868401526040830152606082015282805260015afa15610355575f516001600160a01b0381161561135a57905f905f90565b505f906001905f90565b5050505f916003919056fe9e7b61f58c47dc699ac88507c4f5bb9f121c03808c5676a8078fe583e46497019e7b61f58c47dc699ac88507c4f5bb9f121c03808c5676a8078fe583e4649700a26469706673582212207a860cc13676fe02ef72966598609fcc5276d9e38c98655f8c4a47c2429d137364736f6c63430008180033",
  "linkReferences": {},
  "deployedLinkReferences": {}
}