{
  "_format": "hh-sol-artifact-1",
  "contractName": "LoanEngine",
  "sourceName": "contracts/LoanEngine.sol",
  "abi": [
    {
      "inputs": [
        {
          "internalType": "address",
          "name": "_scoreManager",
          "type": "address"
        },
        {
          "internalType": "address",
          "name": "_poolManager",
          "type": "address"
        },
        {
          "internalType": "address",
          "name": "_verifier",
          "type": "address"
        },
        {
          "internalType": "address",
          "name": "_protocolFunds",
          "type": "address"
        }
      ],
      "stateMutability": "nonpayable",
      "type": "constructor"
    },
    {
      "inputs": [],
      "name": "InvalidKMSSignatures",
      "type": "error"
    },
    {
      "inputs": [
        {
          "internalType": "address",
          "name": "owner",
          "type": "address"
        }
      ],
      "name": "OwnableInvalidOwner",
      "type": "error"
    },
    {
      "inputs": [
        {
          "internalType": "address",
          "name": "account",
          "type": "address"
        }
      ],
      "name": "OwnableUnauthorizedAccount",
      "type": "error"
    },
    {
      "inputs": [],
      "name": "ReentrancyGuardReentrantCall",
      "type": "error"
    },
    {
      "inputs": [
        {
          "internalType": "bytes32",
          "name": "handle",
          "type": "bytes32"
        },
        {
          "internalType": "address",
          "name": "sender",
          "type": "address"
        }
      ],
      "name": "SenderNotAllowedToUseHandle",
      "type": "error"
    },
    {
      "inputs": [],
      "name": "FhenixProtocolUnsupported",
      "type": "error"
    },
    {
      "anonymous": false,
      "inputs": [
        {
          "indexed": true,
          "internalType": "uint256",
          "name": "loanId",
          "type": "uint256"
        },
        {
          "indexed": true,
          "internalType": "address",
          "name": "borrower",
          "type": "address"
        },
        {
          "indexed": false,
          "internalType": "uint256",
          "name": "principal",
          "type": "uint256"
        },
        {
          "indexed": false,
          "internalType": "uint256",
          "name": "interest",
          "type": "uint256"
        }
      ],
      "name": "LoanCreated",
      "type": "event"
    },
    {
      "anonymous": false,
      "inputs": [
        {
          "indexed": true,
          "internalType": "uint256",
          "name": "loanId",
          "type": "uint256"
        }
      ],
      "name": "LoanDefaulted",
      "type": "event"
    },
    {
      "anonymous": false,
      "inputs": [
        {
          "indexed": true,
          "internalType": "uint256",
          "name": "loanId",
          "type": "uint256"
        }
      ],
      "name": "LoanFullyRepaid",
      "type": "event"
    },
    {
      "anonymous": false,
      "inputs": [
        {
          "indexed": true,
          "internalType": "address",
          "name": "previousOwner",
          "type": "address"
        },
        {
          "indexed": true,
          "internalType": "address",
          "name": "newOwner",
          "type": "address"
        }
      ],
      "name": "OwnershipTransferred",
      "type": "event"
    },
    {
      "anonymous": false,
      "inputs": [
        {
          "indexed": false,
          "internalType": "bytes32[]",
          "name": "handlesList",
          "type": "bytes32[]"
        },
        {
          "indexed": false,
          "internalType": "bytes",
          "name": "abiEncodedCleartexts",
          "type": "bytes"
        }
      ],
      "name": "PublicDecryptionVerified",
      "type": "event"
    },
    {
      "anonymous": false,
      "inputs": [
        {
          "indexed": true,
          "internalType": "uint256",
          "name": "loanId",
          "type": "uint256"
        },
        {
          "indexed": false,
          "internalType": "uint256",
          "name": "amount",
          "type": "uint256"
        }
      ],
      "name": "RepaymentMade",
      "type": "event"
    },
    {
      "inputs": [],
      "name": "INTEREST_RATE_BPS",
      "outputs": [
        {
          "internalType": "uint256",
          "name": "",
          "type": "uint256"
        }
      ],
      "stateMutability": "view",
      "type": "function"
    },
    {
      "inputs": [],
      "name": "PROTOCOL_FEE_BPS",
      "outputs": [
        {
          "internalType": "uint256",
          "name": "",
          "type": "uint256"
        }
      ],
      "stateMutability": "view",
      "type": "function"
    },
    {
      "inputs": [],
      "name": "REPAY_EVENT_SIGNATURE",
      "outputs": [
        {
          "internalType": "bytes32",
          "name": "",
          "type": "bytes32"
        }
      ],
      "stateMutability": "view",
      "type": "function"
    },
    {
      "inputs": [],
      "name": "VERIFIER",
      "outputs": [
        {
          "internalType": "contract INativeQueryVerifier",
          "name": "",
          "type": "address"
        }
      ],
      "stateMutability": "view",
      "type": "function"
    },
    {
      "inputs": [
        {
          "internalType": "uint256",
          "name": "loanId",
          "type": "uint256"
        }
      ],
      "name": "auditRepayment",
      "outputs": [],
      "stateMutability": "nonpayable",
      "type": "function"
    },
    {
      "inputs": [],
      "name": "confidentialProtocolId",
      "outputs": [
        {
          "internalType": "uint256",
          "name": "",
          "type": "uint256"
        }
      ],
      "stateMutability": "view",
      "type": "function"
    },
    {
      "inputs": [
        {
          "internalType": "address",
          "name": "user",
          "type": "address"
        },
        {
          "internalType": "externalEuint64",
          "name": "amount",
          "type": "bytes32"
        },
        {
          "internalType": "bytes",
          "name": "inputProof",
          "type": "bytes"
        },
        {
          "internalType": "address",
          "name": "poolToken",
          "type": "address"
        }
      ],
      "name": "createLoan",
      "outputs": [],
      "stateMutability": "nonpayable",
      "type": "function"
    },
    {
      "inputs": [
        {
          "internalType": "uint256",
          "name": "loanId",
          "type": "uint256"
        },
        {
          "internalType": "bytes",
          "name": "abiEncodedClearResult",
          "type": "bytes"
        },
        {
          "internalType": "bytes",
          "name": "decryptionProof",
          "type": "bytes"
        }
      ],
      "name": "finalizeRepaymentAudit",
      "outputs": [],
      "stateMutability": "nonpayable",
      "type": "function"
    },
    {
      "inputs": [
        {
          "internalType": "address",
          "name": "user",
          "type": "address"
        }
      ],
      "name": "getUserActiveDebt",
      "outputs": [
        {
          "internalType": "euint64",
          "name": "",
          "type": "bytes32"
        }
      ],
      "stateMutability": "view",
      "type": "function"
    },
    {
      "inputs": [
        {
          "internalType": "uint256",
          "name": "loanId",
          "type": "uint256"
        }
      ],
      "name": "liquidate",
      "outputs": [],
      "stateMutability": "nonpayable",
      "type": "function"
    },
    {
      "inputs": [],
      "name": "loanCount",
      "outputs": [
        {
          "internalType": "uint256",
          "name": "",
          "type": "uint256"
        }
      ],
      "stateMutability": "view",
      "type": "function"
    },
    {
      "inputs": [
        {
          "internalType": "uint256",
          "name": "",
          "type": "uint256"
        }
      ],
      "name": "loans",
      "outputs": [
        {
          "internalType": "address",
          "name": "borrower",
          "type": "address"
        },
        {
          "internalType": "euint64",
          "name": "principal",
          "type": "bytes32"
        },
        {
          "internalType": "euint64",
          "name": "interestAmount",
          "type": "bytes32"
        },
        {
          "internalType": "euint64",
          "name": "repaid",
          "type": "bytes32"
        },
        {
          "internalType": "uint256",
          "name": "startTime",
          "type": "uint256"
        },
        {
          "internalType": "enum LoanEngine.LoanStatus",
          "name": "status",
          "type": "uint8"
        },
        {
          "internalType": "address",
          "name": "poolToken",
          "type": "address"
        }
      ],
      "stateMutability": "view",
      "type": "function"
    },
    {
      "inputs": [],
      "name": "owner",
      "outputs": [
        {
          "internalType": "address",
          "name": "",
          "type": "address"
        }
      ],
      "stateMutability": "view",
      "type": "function"
    },
    {
      "inputs": [],
      "name": "poolManager",
      "outputs": [
        {
          "internalType": "contract PoolManager",
          "name": "",
          "type": "address"
        }
      ],
      "stateMutability": "view",
      "type": "function"
    },
    {
      "inputs": [
        {
          "internalType": "bytes32",
          "name": "",
          "type": "bytes32"
        }
      ],
      "name": "processedQueries",
      "outputs": [
        {
          "internalType": "bool",
          "name": "",
          "type": "bool"
        }
      ],
      "stateMutability": "view",
      "type": "function"
    },
    {
      "inputs": [],
      "name": "protocolFunds",
      "outputs": [
        {
          "internalType": "contract ProtocolFunds",
          "name": "",
          "type": "address"
        }
      ],
      "stateMutability": "view",
      "type": "function"
    },
    {
      "inputs": [],
      "name": "renounceOwnership",
      "outputs": [],
      "stateMutability": "nonpayable",
      "type": "function"
    },
    {
      "inputs": [
        {
          "internalType": "uint256",
          "name": "loanId",
          "type": "uint256"
        },
        {
          "internalType": "externalEuint64",
          "name": "encryptedAmount",
          "type": "bytes32"
        },
        {
          "internalType": "bytes",
          "name": "inputProof",
          "type": "bytes"
        }
      ],
      "name": "repay",
      "outputs": [],
      "stateMutability": "nonpayable",
      "type": "function"
    },
    {
      "inputs": [
        {
          "internalType": "uint64",
          "name": "chainKey",
          "type": "uint64"
        },
        {
          "internalType": "uint64",
          "name": "blockHeight",
          "type": "uint64"
        },
        {
          "internalType": "bytes",
          "name": "encodedTransaction",
          "type": "bytes"
        },
        {
          "internalType": "bytes32",
          "name": "merkleRoot",
          "type": "bytes32"
        },
        {
          "components": [
            {
              "internalType": "bytes32",
              "name": "hash",
              "type": "bytes32"
            },
            {
              "internalType": "bool",
              "name": "isLeft",
              "type": "bool"
            }
          ],
          "internalType": "struct INativeQueryVerifier.MerkleProofEntry[]",
          "name": "siblings",
          "type": "tuple[]"
        },
        {
          "internalType": "bytes32",
          "name": "lowerEndpointDigest",
          "type": "bytes32"
        },
        {
          "internalType": "bytes32[]",
          "name": "continuityRoots",
          "type": "bytes32[]"
        }
      ],
      "name": "repayFromProof",
      "outputs": [],
      "stateMutability": "nonpayable",
      "type": "function"
    },
    {
      "inputs": [],
      "name": "scoreManager",
      "outputs": [
        {
          "internalType": "contract ScoreManager",
          "name": "",
          "type": "address"
        }
      ],
      "stateMutability": "view",
      "type": "function"
    },
    {
      "inputs": [
        {
          "internalType": "address",
          "name": "newOwner",
          "type": "address"
        }
      ],
      "name": "transferOwnership",
      "outputs": [],
      "stateMutability": "nonpayable",
      "type": "function"
    }
  ],
  "bytecode": "0x60a0346200034c57601f6200302d38819003918201601f191683019291906001600160401b03841183851017620003505781608092849260409687528339810103126200034c57620000518162000384565b90620000606020820162000384565b916200007c60606200007486850162000384565b930162000384565b90331562000335575f80546001600160a01b03198082163390811784556001600160a01b039791958895909486949192918516907f8be0079c531659141344cd1fd0a4f28419497f9722a3daafe3b4186f6b6457e09080a360018055620000e262000399565b504660010362000230578290620000f862000399565b50818a6200010562000364565b73ca2e8f1f656cd25c01f05d0b243ab1ecd4a8ffb6815273d82385dada1ae3e969447f20a3164f6213100e7560208201527377627828a55156b04ac0dc0eb30467f1a552bb03828201525b828151167f9e7b61f58c47dc699ac88507c4f5bb9f121c03808c5676a8078fe583e4649700908b825416179055826020820151167f9e7b61f58c47dc699ac88507c4f5bb9f121c03808c5676a8078fe583e4649701908b8254161790550151167f9e7b61f58c47dc699ac88507c4f5bb9f121c03808c5676a8078fe583e464970290888254161790551685600254161760025516836003541617600355169060045416176004551680155f14620002275750610fd26080525b51612c779081620003b6823960805181818161133a0152611dc10152f35b60805262000209565b9091504662aa36a703620002a957908380926200024c62000399565b50818a6200025962000364565b73f0ffdc93b7e186bc2f8cb3daa75d86d1930a433d81527392c920834ec8941d2c77d188936e1f7a6f49c127602082015273be0e383937d564d7ff0bc3b46c51f0bf8d5c311a8282015262000150565b9192509046617a69036200032457859291838092620002c762000399565b50818a620002d462000364565b7350157cffd6bbfa2dece204a89ec419c23ef5755d815273e3a9105a3a932253a70f126eb1e3b589c643dd24602082015273be0e383937d564d7ff0bc3b46c51f0bf8d5c311a8282015262000150565b86516373cac13b60e01b8152600490fd5b8451631e4fbdf760e01b81525f6004820152602490fd5b5f80fd5b634e487b7160e01b5f52604160045260245ffd5b60405190606082016001600160401b038111838210176200035057604052565b51906001600160a01b03821682036200034c57565b620003a362000364565b905f82525f60208301525f604083015256fe6080806040526004361015610012575f80fd5b5f905f3560e01c90816308c84e7014611daf575080630bcd02d314611d0c5780631ae8537f14611cd457806321e4cc5f14611cac57806333cc99ab14611c7d578063415f124014611a32578063715018a6146119d95780638927b030146119b65780638b7650b1146110705780638da5cb5b146110495780639bd344e51461102c578063b1db0158146107d2578063bb96fe73146107a9578063be3782281461078c578063c7f501a71461047e578063ce63094d14610460578063d9a185541461028f578063dc4c90d314610266578063e1ec3c68146101cf578063ed7a42de146101945763f2fde38b14610105575f80fd5b346101915760203660031901126101915761011e611e1d565b610126612843565b6001600160a01b03908116908115610178575f54826bffffffffffffffffffffffff60a01b8216175f55167f8be0079c531659141344cd1fd0a4f28419497f9722a3daafe3b4186f6b6457e05f80a380f35b604051631e4fbdf760e01b815260048101849052602490fd5b80fd5b503461019157806003193601126101915760206040517f040cee90ee4799897c30ca04e5feb6fa43dbba9b6d084b4b257cdafd84ba013e8152f35b503461019157602036600319011261019157600435815260056020526040812060018060a01b03808254169160018101546002820154916003810154600660048301549201549360ff851693604051978852602088015260408701526060860152608085015260038110156102525760e0945060a084015260081c1660c0820152f35b634e487b7160e01b85526021600452602485fd5b50346101915780600319360112610191576003546040516001600160a01b039091168152602090f35b5034610191576020908160031936011261019157600435815260058252604081209160ff600684015416600381101561044c5782936102d16102ee9215611ef1565b60036102e6600183015460028401549061289d565b9101546129be565b908182159283610439575b610304903090612af9565b916103a5575b6040519161031783611e46565b6001835281368185013761032a836121cf565b525f80516020612c22833981519152546001600160a01b031691823b156103a05761037492849283604051809681958294637d6e912360e11b845260048401526024830190612a42565b03925af18015610395576103855750f35b61038e90611e33565b6101915780f35b6040513d84823e3d90fd5b505050fd5b5f925080915060018060a01b035f80516020612c028339815191525416604460405180958193639cd07acb60e01b83528860048401528160248401525af1801561042e5783925f916103f9575b509061030a565b809350828092503d8311610427575b6104128183611e61565b81010312610423578291515f6103f2565b5f80fd5b503d610408565b6040513d5f823e3d90fd5b50610304610445612bb5565b90506102f9565b634e487b7160e01b83526021600452602483fd5b50346101915780600319360112610191576020600854604051908152f35b5034610191576003199060603683011261019157600435602435926001600160401b0393848111610788576104b7903690600401611ed3565b93604435908111610788576104d0903690600401611ed3565b828452602091600583526040852090600682019060ff8254166003811015610774576104fc9015611ef1565b60018301976105c2866105226105188c5460028901549061289d565b60038801546129be565b936040519461053086611e46565b60018652823681880137610543866121cf565b527f9e7b61f58c47dc699ac88507c4f5bb9f121c03808c5676a8078fe583e4649702546040516378542ead60e01b8152606060048201526001600160a01b039990948593928b169284928f92849290916105b36105a3606486018e612a42565b838682030160248701528c61219a565b9184830301604485015261219a565b03925af190811561076957899161073c575b501561072a577fc6366bab028b8d033cb362cfd1f2f3457ef4e92fc738b6788b90d5a7846367a061061961063793610626604051928392604084526040840190612a42565b8281038b8401528561219a565b0390a1858082518301019101611fc0565b156106f257600694959661066691600160ff198254161790558383541688528585526040882054905490612790565b828254168752848452604087205561068e82825416808852604088205480156106e457612af9565b5416845252604082205480156106d1575b6106aa903090612af9565b7f6a65a58027e68282a85ac65a7afc6580ef3d139c6e6ec12ae8d82de13566e8cc8280a280f35b506106aa6106dd612b62565b905061069f565b506106ed612b62565b612af9565b60405162461bcd60e51b815260048101859052601060248201526f139bdd08199d5b1b1e481c995c185a5960821b6044820152606490fd5b60405163cf6c44e960e01b8152600490fd5b61075c9150873d8911610762575b6107548183611e61565b810190611fc0565b5f6105d4565b503d61074a565b6040513d8b823e3d90fd5b634e487b7160e01b88526021600452602488fd5b8380fd5b503461019157806003193601126101915760206040516107d08152f35b50346101915780600319360112610191576004546040516001600160a01b039091168152602090f35b5034610191576080366003190112610191576107ec611e1d565b906044356001600160401b0381116110285761080c903690600401611df0565b6064359391906001600160a01b03851685036104235761083991610831913691611e9d565b6024356121f0565b600254604051630d47875d60e41b81526001600160a01b0384811660048301529295929091602091839160249183918991165af18015610fee57610ff9575b50600254604051632c333e2560e01b81526001600160a01b0384811660048301529091602091839160249183918991165af1908115610fee578491610fbc575b506001600160a01b038316845260066020526040842054946108da818761289d565b91808315610fac575b15610f9a575b5f80516020612c0283398151915254604051631d44e90160e21b8152600481019490945260248401919091526001600160f81b0319861660448401526020908390606490829089906001600160a01b03165af1908115610f8f578591610f59575b61095d9250610957612b62565b91612921565b9384918515610f49575b60018060a01b035f80516020612c02833981519152541660405196630afe14ad60e31b8852600488015261dac060248801526020876064815f600160f81b958660448401525af196871561042e575f97610f15575b508615610f01575b602090606460018060a01b035f80516020612c028339815191525416985f6040519a8b948593635a53accb60e01b855260048501526237b1d0602485015260448401525af195861561042e575f96610ecd575b5060405160a081018181106001600160401b03821117610e9157604052600481526080366020830137621275004201804211610eb957610a56826121cf565b526224ea004201804211610eb957610a6d826121bf565b5262375f004201804211610eb957815160021015610ea55760608201526249d4004201804211610eb957815160031015610ea5576080820152610aae612b62565b60405197886101008101106001600160401b036101008b011117610e9157610100890160409081526001600160a01b038881168b526020808c01898152838d0194855260608d019586524260808e0190815260a08e0197885260c08e018d905297831660e08e01526008548c526005909152918a208b5181546001600160a01b031916921691909117815590516001820155905160028201559051600382015591516004830155518051906001600160401b038211610e7d57680100000000000000008211610e7d576005830154826005850155808310610e53575b5060200160058301875260208720875b838110610e3f575050505060060160c08601516003811015610e2b57610bef94959660ff83549160e0610100600160a81b0391015160081b169216906affffffffffffffffffffff60a81b161717905561289d565b60018060a01b038216835260066020526040832055600854825260056020526001604083200154818115610e17575b610c2791612af9565b600854825260056020526002604083200154818115610e03575b610c4a91612af9565b600854825260056020526003604083200154818115610def575b610c6d91612af9565b6001600160a01b038116825260066020526040822054818115610ddb575b610c9491612af9565b6008548252600560205260016040832001548015610dc8575b610cb8903090612af9565b6008548252600560205260026040832001548015610db5575b610cdc903090612af9565b6008548252600560205260036040832001548015610da2575b610d00903090612af9565b6001600160a01b0381168252600660205260408220548015610d8f575b610d28903090612af9565b600854604080518481526020810185905291926001600160a01b03169183917f3373919ad665425d2cddb4072830e5935b6ee308440fa99b23383648da473bc091a35f198114610d7b5760010160085580f35b634e487b7160e01b82526011600452602482fd5b50610d28610d9b612b62565b9050610d1d565b50610d00610dae612b62565b9050610cf5565b50610cdc610dc1612b62565b9050610cd1565b50610cb8610dd4612b62565b9050610cad565b610c949150610de8612b62565b9150610c8b565b610c6d9150610dfc612b62565b9150610c64565b610c4a9150610e10612b62565b9150610c41565b610c279150610e24612b62565b9150610c1e565b634e487b7160e01b86526021600452602486fd5b600190602084519401938184015501610b9a565b60058401885260208820908382015b8183018110610e72575050610b8a565b898155600101610e62565b634e487b7160e01b87526041600452602487fd5b634e487b7160e01b5f52604160045260245ffd5b634e487b7160e01b5f52603260045260245ffd5b634e487b7160e01b87526011600452602487fd5b9095506020813d602011610ef9575b81610ee960209383611e61565b810103126104235751945f610a17565b3d9150610edc565b95506020610f0d612b62565b9690506109c4565b9096506020813d602011610f41575b81610f3160209383611e61565b810103126104235751955f6109bc565b3d9150610f24565b9450610f53612b62565b94610967565b90506020823d602011610f87575b81610f7460209383611e61565b810103126104235761095d91519061094a565b3d9150610f67565b6040513d87823e3d90fd5b506020610fa5612b62565b90506108e9565b9250610fb6612b62565b926108e3565b90506020813d602011610fe6575b81610fd760209383611e61565b8101031261078857515f6108b8565b3d9150610fca565b6040513d86823e3d90fd5b602090813d8311611021575b61100f8183611e61565b8101031261101d575f610878565b8280fd5b503d611005565b5080fd5b503461019157806003193601126101915760206040516103e88152f35b5034610191578060031936011261019157546040516001600160a01b039091168152602090f35b50346101915760e0366003190112610191576001600160401b036004351660043503610423576001600160401b036024351660243503610423576044356001600160401b038111611028576110c9903690600401611df0565b9091608435916001600160401b0383116110285736602384011215611028576001600160401b0383600401351161102857366024846004013560061b85010111611028576001600160401b0360c435116110285736602360c435011215611028576001600160401b0360c43560040135116110285736602460c4356004013560051b60c435010111611028576002600154146119a457600260015561117636846004013560248601611f41565b80518391815b61191a575050604051906001600160401b0360c01b8060043560c01b16602084015260243560c01b1660288301526030820152603081528060608101106001600160401b03606083011117610e9157606081016040526020815191012092838352600760205260ff6040842054166118e957611213604051916111fe83611e46565b60643583523690602481600401359101611f41565b602082015260405161122481611e46565b60a435815261123860c43560040135611f2a565b6112456040519182611e61565b60c43560048101358252602401602082015b602460c4356004013560051b60c435010182106118d957505060208201526040519182916302f4d16760e01b83526001600160401b036004351660048401526001600160401b0360243516602484015260a060448401526112bc60a48401868a611fd8565b916003198484030160648501526020606081604086019380518752015194604083820152855180945201930190875b8181106118b2575050506003198383030160848401526020606081604085019380518652015193604083820152845180945201920190865b8181106118995750602093928390039150829050867f00000000000000000000000000000000000000000000000000000000000000006001600160a01b03165af190811561188e57839161186f575b501561183a576040516306eae3bf60e11b815260206004820152938291859182916113a291602484019190611fd8565b038173__$eb2e2f684bffbc36e7cf45ce0012b95bdf$__5af492831561167a57819361174f575b50600160ff8451160361171757806040518094635401482560e01b82526040600483015260c482019060ff81511660448401526001600160401b03602082015116606484015260408101519160806084850152825180915260e4840190602060e48260051b87010194019186905b8282106116875750505050606001518282036043190160a4840152829161145d9161219a565b7f040cee90ee4799897c30ca04e5feb6fa43dbba9b6d084b4b257cdafd84ba013e6024830152038173__$eb2e2f684bffbc36e7cf45ce0012b95bdf$__5af492831561167a578193611637575b508251156115fc57805b83518110156115dd57600260206114cb83876121dc565b51015151036115a7576114eb60206114e383876121dc565b5101516121bf565b519060406114f982876121dc565b5101516020818051810103126107885760206001600160401b03815f93015116604460018060a01b035f80516020612c028339815191525416916040519485938492639cd07acb60e01b84526004840152600560248401525af190811561042e575f91611574575b5061156e9060019361239a565b016114b4565b90506020813d60201161159f575b8161158f60209383611e61565b8101031261042357516001611561565b3d9150611582565b60405162461bcd60e51b815260206004820152600e60248201526d496e76616c696420746f7069637360901b6044820152606490fd5b50908152600760205260408120600160ff198254161790556001805580f35b60405162461bcd60e51b81526020600482015260136024820152724e6f2052657061796d656e74206576656e747360681b6044820152606490fd5b9092503d8084833e6116498183611e61565b81016020828203126107885781516001600160401b0381116116765761166f920161205b565b915f6114aa565b8480fd5b50604051903d90823e3d90fd5b9296509294509260e319898203018252855190606081019160018060a01b0381511682526020810151926060602084015283518091526020608084019401908a5b818110611701575050506116ef60019360209360408594015190604081840391015261219a565b97019201920192869593899593611437565b82518652602095860195909201916001016116c8565b60405162461bcd60e51b815260206004820152601060248201526f4661696c6564206f6e20736f7572636560801b6044820152606490fd5b9092503d8084833e6117618183611e61565b6020828281010312610788578151916001600160401b038311611676576080838201838301031261167657604051928360808101106001600160401b03608086011117610e9157608084016040528082015160ff81168103611836578452602081830101516001600160401b0381168103611836576020850152604081830101516001600160401b0381116118365761180190848401908385010161205b565b604085015260608183010151906001600160401b0382116118365761182a938301920101612019565b6060820152915f6113c9565b8680fd5b60405162461bcd60e51b815260206004820152600d60248201526c13985d1a5d994819985a5b1959609a1b6044820152606490fd5b611888915060203d602011610762576107548183611e61565b5f611372565b6040513d85823e3d90fd5b8251845285945060209384019390920191600101611323565b825180518652602090810151151581870152879650604090950194909201916001016112eb565b8135815260209182019101611257565b60405162461bcd60e51b8152602060048201526009602482015268141c9bd8d95cdcd95960ba1b6044820152606490fd5b9091808060011b046002148115171561197457825f198101116119745760206119465f198501846121dc565b5101511561199c5760ff60015b168160011b01809160011b1161198857918015611974575f1901908161117c565b634e487b7160e01b85526011600452602485fd5b634e487b7160e01b5f52601160045260245ffd5b60ff85611953565b604051633ee5aeb560e01b8152600490fd5b503461019157806003193601126101915760206119d161286e565b604051908152f35b50346101915780600319360112610191576119f2612843565b5f80546001600160a01b0319811682556001600160a01b03167f8be0079c531659141344cd1fd0a4f28419497f9722a3daafe3b4186f6b6457e08280a380f35b5034610423576020806003193601126104235760043590815f526005815260405f20906006820191825460ff81166003811015611c6957611a739015611ef1565b60058201805460031015610ea5575f526003835f200154421115611c365760ff1916600290811784555481546001600160a01b0392918316908316813b15610423575f9160a483926040519485938492628654a160e41b84526004840152603119602484015260606044840152600e60648401526d2232b330bab63a32b2102637b0b760911b60848401525af1801561042e57611c23575b50856001820194611b228654600385015490612790565b9084600354168580865416925460081c1690803b1561167657849283606492604051968795869463fad9570d60e01b86526004860152602485015260448401525af1801561039557611c0b575b5050611b8d6006948383541688528585526040882054905490612790565b8282541687528484526040872055611bb582825416808852604088205480156106e457612af9565b541684525260408220548015611bf8575b611bd1903090612af9565b7f0789b7097e8066538cfaa1132488b132e14ba5f0c938c8b7aaf8cf40356aab0b8280a280f35b50611bd1611c04612b62565b9050611bc6565b611c1490611e33565b611c1f57855f611b6f565b8580fd5b611c2e919650611e33565b5f945f611b0b565b60405162461bcd60e51b815260048101849052600b60248201526a4e6f74206f76657264756560a81b6044820152606490fd5b634e487b7160e01b5f52602160045260245ffd5b34610423576020366003190112610423576004355f526007602052602060ff60405f2054166040519015158152f35b34610423575f366003190112610423576002546040516001600160a01b039091168152602090f35b34610423576020366003190112610423576001600160a01b03611cf5611e1d565b165f526006602052602060405f2054604051908152f35b34610423576060366003190112610423576004356044356001600160401b03811161042357611d3f903690600401611df0565b5f83815260056020526040902054909291906001600160a01b03163303611d7a57610831611d7291611d78943691611e9d565b9061239a565b005b60405162461bcd60e51b815260206004820152600d60248201526c27b7363c903137b93937bbb2b960991b6044820152606490fd5b34610423575f366003190112610423577f00000000000000000000000000000000000000000000000000000000000000006001600160a01b03168152602090f35b9181601f84011215610423578235916001600160401b038311610423576020838186019501011161042357565b600435906001600160a01b038216820361042357565b6001600160401b038111610e9157604052565b604081019081106001600160401b03821117610e9157604052565b90601f801991011681019081106001600160401b03821117610e9157604052565b6001600160401b038111610e9157601f01601f191660200190565b929192611ea982611e82565b91611eb76040519384611e61565b829481845281830111610423578281602093845f960137010152565b9080601f8301121561042357816020611eee93359101611e9d565b90565b15611ef857565b60405162461bcd60e51b815260206004820152600a6024820152694e6f742061637469766560b01b6044820152606490fd5b6001600160401b038111610e915760051b60200190565b929192611f4d82611f2a565b604092611f5d6040519283611e61565b819581835260208093019160061b84019381851161042357915b848310611f8657505050505050565b858383031261042357855190611f9b82611e46565b833582528484013590811515820361042357828692838a950152815201920191611f77565b90816020910312610423575180151581036104235790565b908060209392818452848401375f828201840152601f01601f1916010190565b5f5b8381106120095750505f910152565b8181015183820152602001611ffa565b81601f8201121561042357805161202f81611e82565b9261203d6040519485611e61565b8184526020828401011161042357611eee9160208085019101611ff8565b9080601f830112156104235781519160209161207684611f2a565b9360409061208682519687611e61565b808652848601918560059260051b8601019484861161042357868101935b8685106120b657505050505050505090565b84516001600160401b039081811161042357830191606080601f19858b0301126104235785519080820182811085821117610e91578752848c01516001600160a01b0381168103610423578252868501518481116104235785018a603f8201121561042357808d809201518961212b82611f2a565b9361213882519586611e61565b8285528401918c1b830101918d8311610423578f908b01915b83831061218957509150508301528401519283116104235761217a898c80969581960101612019565b868201528152019401936120a4565b819083518152019101908f90612151565b906020916121b381518092818552858086019101611ff8565b601f01601f1916010190565b805160011015610ea55760400190565b805115610ea55760200190565b8051821015610ea55760209160051b010190565b8151909190156122f5575f80516020612c028339815191525460405163045fc19560e11b81526004810193909352336024840152608060448401526001600160a01b039160209184919084169082905f90829061225190608483019061219a565b6005606483015203925af191821561042e575f926122c1575b505f80516020612c228339815191525416803b1561042357604051630f8e573b60e21b815260048101839052336024820152905f908290604490829084905af1801561042e576122b8575090565b611eee90611e33565b9091506020813d6020116122ed575b816122dd60209383611e61565b810103126104235751905f61226a565b3d91506122d0565b508015612391575f80516020612c22833981519152546040516382027b6d60e01b81526004810183905233602482015290602090829060449082906001600160a01b03165afa90811561042e575f91612372575b50156123525790565b604051630276b5d960e01b81526004810191909152336024820152604490fd5b61238b915060203d602011610762576107548183611e61565b5f612349565b50611eee612b62565b9190915f815f52602090600582526040805f2095600687019660ff8854166003811015611c69576123cb9015611ef1565b60018101906123e0825460028301549061289d565b9861240360038301946123f486548d612790565b6123fe8183612a75565b612921565b9261247861241285875461289d565b80875584546001600160a01b0393916124339185169080156106e457612af9565b8654801561277d575b612447903090612af9565b61247061246561245a8954845490612a75565b928954905490612790565b876123fe8183612a75565b610957612b62565b918290831561276d575b5f80516020612c028339815191529183835416895193630afe14ad60e31b8552600496878601526107d060248601528c856064815f600160f81b968760448401525af1948515612763578d929187915f9761272f575b508615612719575b906064915416955f8d519788948593635a53accb60e01b85528c850152612710602485015260448401525af19283156126de575f936126e8575b508261252591612790565b918385541690825490823b156104235761257192865f80948e519687958694859363b9e1aa0360e01b855260081c168d840160209093929193604081019460018060a01b031681520152565b03925af180156126de576126cb575b50828060035416915460081c16813b156126c757885163158cb46b60e21b81526001600160a01b039091168582019081526020810193909352918991839182908490829060400103925af180156126bd579088916126a9575b5050806002541692541690823b1561183657855163b7a8c1f360e01b81526001600160a01b039092169082019081526020810193909352918591839182908490829060400103925af1801561269c57612688575b507fd3337f372235c0c137836a45251cd21fba324e7ef27c7acc5ac12451491793b994959661265c91546129be565b8015612675575b61266e903090612af9565b51908152a2565b5061266e612681612bb5565b9050612663565b6126928491611e33565b61101d575f61262d565b50505051903d90823e3d90fd5b6126b290611e33565b61183657865f6125d9565b87513d8a823e3d90fd5b8980fd5b6126d6919950611e33565b5f975f612580565b89513d5f823e3d90fd5b9092508a81813d8311612712575b6127008183611e61565b8101031261042357519161252561251a565b503d6126f6565b9550606490612726612b62565b969091506124e0565b93849197508092503d831161275c575b6127498183611e61565b8101031261042357858d9251955f6124d8565b503d61273f565b8b513d5f823e3d90fd5b9250612777612b62565b92612482565b50612447612789612b62565b905061243c565b908115612833575b8015612821575b602090606460018060a01b035f80516020612c028339815191525416935f60405195869485936303056db360e31b8552600485015260248401528160448401525af190811561042e575f916127f2575090565b90506020813d602011612819575b8161280d60209383611e61565b81010312610423575190565b3d9150612800565b50602061282c612b62565b905061279f565b905061283d612b62565b90612798565b5f546001600160a01b0316330361285657565b60405163118cdaa760e01b8152336004820152602490fd5b4660010361287b57600190565b4662aa36a70361288b5761271190565b617a694614612898575f90565b5f1990565b908115612911575b80156128ff575b602090606460018060a01b035f80516020612c028339815191525416935f604051958694859363022f65e760e31b8552600485015260248401528160448401525af190811561042e575f916127f2575090565b50602061290a612b62565b90506128ac565b905061291b612b62565b906128a5565b919082156129ae575b80156129a0575b811561298a575b6064602092935f60018060a01b035f80516020612c0283398151915254166040519687958694637702dcff60e01b86526004860152602485015260448401525af190811561042e575f916127f2575090565b602091506064612998612b62565b925050612938565b506129a9612b62565b612931565b91506129b8612bb5565b9161292a565b908115612a32575b8015612a20575b602090606460018060a01b035f80516020612c028339815191525416935f6040519586948593631391547f60e01b8552600485015260248401528160448401525af190811561042e575f916127f2575090565b506020612a2b612b62565b90506129cd565b9050612a3c612b62565b906129c6565b9081518082526020808093019301915f5b828110612a61575050505090565b835185529381019392810192600101612a53565b908115612ae9575b8015612ad7575b602090606460018060a01b035f80516020612c028339815191525416935f60405195869485936385362ee760e01b8552600485015260248401528160448401525af190811561042e575f916127f2575090565b506020612ae2612b62565b9050612a84565b9050612af3612b62565b90612a7d565b5f80516020612c22833981519152546001600160a01b031691823b1561042357604051635ca4b5b160e11b815260048101929092526001600160a01b03166024820152905f908290604490829084905af1801561042e57612b575750565b612b6090611e33565b565b5f80516020612c0283398151915254604051639cd07acb60e01b81525f60048201819052600560248301529091602091839160449183916001600160a01b03165af190811561042e575f916127f2575090565b5f602060018060a01b035f80516020612c028339815191525416604460405180948193639cd07acb60e01b83528160048401528160248401525af190811561042e575f916127f257509056fe9e7b61f58c47dc699ac88507c4f5bb9f121c03808c5676a8078fe583e46497019e7b61f58c47dc699ac88507c4f5bb9f121c03808c5676a8078fe583e4649700a2646970667358221220b1a161c91ca21a5a5863e40cf42f31d3436aceec5cba8b7cf9075a28467c96be64736f6c63430008180033",
  "linkReferences": {
    "contracts/interfaces/EvmV1Decoder.sol": {
      "EvmV1Decoder": [
        {
          "length": 20,
          "start": 5980
        },
        {
          "length": 20,
          "start": 6205
        }
      ]
    }
  },
  "deployedLinkReferences": {
    "contracts/interfaces/EvmV1Decoder.sol": {
      "EvmV1Decoder": [
        {
          "length": 20,
          "start": 5030
        },
        {
          "length": 20,
          "start": 5255
        }
      ]
    }
  }
}