{
  "_format": "hh-sol-artifact-1",
  "contractName": "MerchantRouter",
  "sourceName": "contracts/MerchantRouter.sol",
  "abi": [
    {
      "inputs": [
        {
          "internalType": "address",
          "name": "_poolManager",
          "type": "address"
        },
        {
          "internalType": "address",
          "name": "_loanEngine",
          "type": "address"
        }
      ],
      "stateMutability": "nonpayable",
      "type": "constructor"
    },
    {
      "inputs": [
        {
          "internalType": "address",
          "name": "owner",
          "type": "address"
        }
      ],
      "name": "OwnableInvalidOwner",
      "type": "error"
    },
    {
      "inputs": [
        {
          "internalType": "address",
          "name": "account",
          "type": "address"
        }
      ],
      "name": "OwnableUnauthorizedAccount",
      "type": "error"
    },
    {
      "inputs": [
        {
          "internalType": "bytes32",
          "name": "handle",
          "type": "bytes32"
        },
        {
          "internalType": "address",
          "name": "sender",
          "type": "address"
        }
      ],
      "name": "SenderNotAllowedToUseHandle",
      "type": "error"
    },
    {
      "inputs": [],
      "name": "FhenixProtocolUnsupported",
      "type": "error"
    },
    {
      "anonymous": false,
      "inputs": [
        {
          "indexed": true,
          "internalType": "address",
          "name": "customer",
          "type": "address"
        },
        {
          "indexed": true,
          "internalType": "address",
          "name": "merchant",
          "type": "address"
        },
        {
          "indexed": true,
          "internalType": "address",
          "name": "token",
          "type": "address"
        }
      ],
      "name": "MerchantPaid",
      "type": "event"
    },
    {
      "anonymous": false,
      "inputs": [
        {
          "indexed": true,
          "internalType": "address",
          "name": "merchant",
          "type": "address"
        },
        {
          "indexed": true,
          "internalType": "address",
          "name": "token",
          "type": "address"
        }
      ],
      "name": "MerchantWithdrawn",
      "type": "event"
    },
    {
      "anonymous": false,
      "inputs": [
        {
          "indexed": true,
          "internalType": "address",
          "name": "previousOwner",
          "type": "address"
        },
        {
          "indexed": true,
          "internalType": "address",
          "name": "newOwner",
          "type": "address"
        }
      ],
      "name": "OwnershipTransferred",
      "type": "event"
    },
    {
      "inputs": [],
      "name": "confidentialProtocolId",
      "outputs": [
        {
          "internalType": "uint256",
          "name": "",
          "type": "uint256"
        }
      ],
      "stateMutability": "view",
      "type": "function"
    },
    {
      "inputs": [
        {
          "internalType": "address",
          "name": "merchant",
          "type": "address"
        },
        {
          "internalType": "address",
          "name": "token",
          "type": "address"
        }
      ],
      "name": "getMerchantBalance",
      "outputs": [
        {
          "internalType": "euint64",
          "name": "",
          "type": "bytes32"
        }
      ],
      "stateMutability": "view",
      "type": "function"
    },
    {
      "inputs": [],
      "name": "loanEngine",
      "outputs": [
        {
          "internalType": "contract LoanEngine",
          "name": "",
          "type": "address"
        }
      ],
      "stateMutability": "view",
      "type": "function"
    },
    {
      "inputs": [
        {
          "internalType": "address",
          "name": "tokenOnSource",
          "type": "address"
        },
        {
          "internalType": "externalEuint64",
          "name": "encryptedAmount",
          "type": "bytes32"
        },
        {
          "internalType": "bytes",
          "name": "inputProof",
          "type": "bytes"
        },
        {
          "internalType": "uint64",
          "name": "destChainId",
          "type": "uint64"
        }
      ],
      "name": "merchantWithdraw",
      "outputs": [],
      "stateMutability": "nonpayable",
      "type": "function"
    },
    {
      "inputs": [],
      "name": "owner",
      "outputs": [
        {
          "internalType": "address",
          "name": "",
          "type": "address"
        }
      ],
      "stateMutability": "view",
      "type": "function"
    },
    {
      "inputs": [
        {
          "internalType": "address",
          "name": "merchant",
          "type": "address"
        },
        {
          "internalType": "address",
          "name": "tokenOnSource",
          "type": "address"
        },
        {
          "internalType": "externalEuint64",
          "name": "encryptedAmount",
          "type": "bytes32"
        },
        {
          "internalType": "bytes",
          "name": "inputProof",
          "type": "bytes"
        }
      ],
      "name": "payWithCredit",
      "outputs": [],
      "stateMutability": "nonpayable",
      "type": "function"
    },
    {
      "inputs": [],
      "name": "poolManager",
      "outputs": [
        {
          "internalType": "contract PoolManager",
          "name": "",
          "type": "address"
        }
      ],
      "stateMutability": "view",
      "type": "function"
    },
    {
      "inputs": [],
      "name": "renounceOwnership",
      "outputs": [],
      "stateMutability": "nonpayable",
      "type": "function"
    },
    {
      "inputs": [
        {
          "internalType": "address",
          "name": "newOwner",
          "type": "address"
        }
      ],
      "name": "transferOwnership",
      "outputs": [],
      "stateMutability": "nonpayable",
      "type": "function"
    }
  ],
  "bytecode": "0x608034620002e1576200123090601f38839003908101601f19168201906001600160401b03821183831017620002e55780839160409586948552833981010312620002e1576200005d6020620000558362000319565b920162000319565b903315620002ca575f8054336001600160a01b031980831682178455946001600160a01b0394909385939192918416907f8be0079c531659141344cd1fd0a4f28419497f9722a3daafe3b4186f6b6457e09080a3620000bb6200032e565b5046600103620001d257620000cf6200032e565b508186620000dc620002f9565b73ca2e8f1f656cd25c01f05d0b243ab1ecd4a8ffb6815273d82385dada1ae3e969447f20a3164f6213100e7560208201527377627828a55156b04ac0dc0eb30467f1a552bb03828201525b828151167f9e7b61f58c47dc699ac88507c4f5bb9f121c03808c5676a8078fe583e46497009089825416179055826020820151167f9e7b61f58c47dc699ac88507c4f5bb9f121c03808c5676a8078fe583e464970190898254161790550151167f9e7b61f58c47dc699ac88507c4f5bb9f121c03808c5676a8078fe583e46497029086825416179055168360015416176001551690600254161760025551610ee590816200034b8239f35b4662aa36a7036200024457620001e76200032e565b508186620001f4620002f9565b73f0ffdc93b7e186bc2f8cb3daa75d86d1930a433d81527392c920834ec8941d2c77d188936e1f7a6f49c127602082015273be0e383937d564d7ff0bc3b46c51f0bf8d5c311a8282015262000127565b905046617a6903620002b95782906200025c6200032e565b50818662000269620002f9565b7350157cffd6bbfa2dece204a89ec419c23ef5755d815273e3a9105a3a932253a70f126eb1e3b589c643dd24602082015273be0e383937d564d7ff0bc3b46c51f0bf8d5c311a8282015262000127565b84516373cac13b60e01b8152600490fd5b8251631e4fbdf760e01b81525f6004820152602490fd5b5f80fd5b634e487b7160e01b5f52604160045260245ffd5b60405190606082016001600160401b03811183821017620002e557604052565b51906001600160a01b0382168203620002e157565b62000338620002f9565b905f82525f60208301525f604083015256fe6080806040526004361015610012575f80fd5b5f905f3560e01c9081631628cfa4146109c65750806343646f701461099e578063715018a61461094757806371889b86146106aa5780638927b030146106875780638da5cb5b14610660578063dc4c90d314610637578063f2fde38b146105aa5763f5ed84ce14610081575f80fd5b346105a75760803660031901126105a75761009a610a0e565b8167ffffffffffffffff6044358181116105a3576100bc903690600401610a3a565b60643591838316830361059f576100df6100d7368484610ab2565b602435610b43565b3386526003602090815260408088206001600160a01b038a165f90815290835220549161016e91888483811561058f575b8415610581575b5f80516020610e9083398151915254604051631391547f60e01b8152600481019390935260248301919091526001600160f81b031983166044830152909485926001600160a01b0390921691839182906064820190565b03925af191821561057657889261053f575b5082908083156104a3575b15610495575b831561047f575b6064602092938a60018060a01b035f80516020610e9083398151915254166040519687958694637702dcff60e01b86526004860152602485015260448401525af190811561047457879161043d575b5086610256928260209390821561042d575b1561041f575b5f80516020610e90833981519152546040516303056db360e31b8152600481019390935260248301919091526001600160f81b031983166044830152909384926001600160a01b0390921691839182906064820190565b03925af19081156104145786916103db575b5033865260036020526040862060018060a01b0388165f5260205260405f205533855260036020526040852060018060a01b0387165f5260205260405f205480156103c8575b6102b9903390610d91565b33855260036020526040852060018060a01b0387165f5260205260405f205480156103b5575b6102ea903090610d91565b6001546001600160a01b031690813b156103b1576040516326bea46d60e21b81526001600160a01b03881660048201526024803590820152608060448201529486948694859387938593929091610345916084860191610af8565b9116606483015203925af180156103a65761038e575b50506001600160a01b0316337ffe957bb64d91f1400fae423ee86d9131b16dae8ad2ad7e9732a012b467ac74808380a380f35b61039790610a68565b6103a257815f61035b565b5080fd5b6040513d84823e3d90fd5b8580fd5b506102ea6103c1610e0d565b90506102df565b506102b96103d4610e0d565b90506102ae565b9550506020853d60201161040c575b816103f760209383610a90565b81010312610408578694515f610268565b5f80fd5b3d91506103ea565b6040513d88823e3d90fd5b50610428610e0d565b6101ff565b9150610437610e0d565b916101f9565b919650506020813d60201161046c575b8161045a60209383610a90565b810103126104085751879590866101e7565b3d915061044d565b6040513d89823e3d90fd5b60209150606461048d610e0d565b925050610198565b5061049e610e0d565b610191565b5f80516020610e9083398151915254604051639cd07acb60e01b8152600481018e90525f60248201819052909b509194506020918b9160449183916001600160a01b03165af18015610534578b995f916104ff575b509261018b565b9950506020893d60201161052c575b8161051b60209383610a90565b81010312610408578a98515f6104f8565b3d915061050e565b6040513d5f823e3d90fd5b975090506020873d60201161056e575b8161055c60209383610a90565b8101031261040857889651905f610180565b3d915061054f565b6040513d8a823e3d90fd5b5061058a610e0d565b610117565b9050610599610e0d565b90610110565b8480fd5b8280fd5b80fd5b50346105a75760203660031901126105a7576105c4610a0e565b6105cc610b18565b6001600160a01b0390811690811561061e575f54826bffffffffffffffffffffffff60a01b8216175f55167f8be0079c531659141344cd1fd0a4f28419497f9722a3daafe3b4186f6b6457e05f80a380f35b604051631e4fbdf760e01b815260048101849052602490fd5b50346105a757806003193601126105a7576001546040516001600160a01b039091168152602090f35b50346105a757806003193601126105a757546040516001600160a01b039091168152602090f35b50346105a757806003193601126105a75760206106a2610d62565b604051908152f35b5034610408576080366003190112610408576106c4610a0e565b6106cc610a24565b9060443560643567ffffffffffffffff8111610408576106f0903690600401610a3a565b610707610701939293368386610ab2565b83610b43565b6002546001600160a01b0394919391908516803b1561040857610758935f8094886040519788968795869463163b602b60e31b86523360048701526024860152608060448601526084850191610af8565b9b169a8b606483015203925af1801561053457610932575b5090849181841693848452600392602094859185835260408220895f52835260405f205415155f146109125761080b94888352868452604083208a5f5284528260405f205492828415610902575b156108f2575b5f80516020610e908339815191525416926040519788958694859363022f65e760e31b8552600485019192604091949360608401958452602084015260ff60f81b16910152565b03925af180156104745787906108c3575b610855925085885283855260408820875f52855260405f20555b84875282845260408720865f52845260405f205480156108b557610d91565b82855281526040842090835f525260405f205480156108a2575b61087a903090610d91565b337f4dd4b38bfe442efbe15fe68528895140a394fb87c75d71e7ef48b2bade803e0a8480a480f35b5061087a6108ae610e0d565b905061086f565b506108be610e0d565b610d91565b508382813d83116108eb575b6108d98183610a90565b8101031261040857610855915161081c565b503d6108cf565b91506108fc610e0d565b916107c4565b935061090c610e0d565b936107be565b5061085593915086905283855260408820875f52855260405f2055610836565b61093e91929550610a68565b5f93905f610770565b34610408575f3660031901126104085761095f610b18565b5f80546001600160a01b0319811682556001600160a01b03167f8be0079c531659141344cd1fd0a4f28419497f9722a3daafe3b4186f6b6457e08280a3005b34610408575f366003190112610408576002546040516001600160a01b039091168152602090f35b34610408576040366003190112610408576020906109e2610a0e565b6109ea610a24565b9060018060a01b038091165f526003845260405f2091165f52825260405f20548152f35b600435906001600160a01b038216820361040857565b602435906001600160a01b038216820361040857565b9181601f840112156104085782359167ffffffffffffffff8311610408576020838186019501011161040857565b67ffffffffffffffff8111610a7c57604052565b634e487b7160e01b5f52604160045260245ffd5b90601f8019910116810190811067ffffffffffffffff821117610a7c57604052565b92919267ffffffffffffffff8211610a7c5760405191610adc601f8201601f191660200184610a90565b829481845281830111610408578281602093845f960137010152565b908060209392818452848401375f828201840152601f01601f1916010190565b5f546001600160a01b03163303610b2b57565b60405163118cdaa760e01b8152336004820152602490fd5b815190919015610c8e575f80516020610e908339815191525460405163045fc19560e11b81526004810193909352336024840152608060448401528151608484018190526001600160a01b0392918316918491905f5b828110610c7657505091815f60a4828683836020998401015260056064830152601f801991011681010301925af1918215610534575f92610c42575b507f9e7b61f58c47dc699ac88507c4f5bb9f121c03808c5676a8078fe583e46497005416803b1561040857604051630f8e573b60e21b815260048101839052336024820152905f908290604490829084905af1801561053457610c36575090565b610c3f90610a68565b90565b9091506020813d602011610c6e575b81610c5e60209383610a90565b810103126104085751905f610bd5565b3d9150610c51565b602082820181015160a4898401015287945001610b99565b508015610d59577f9e7b61f58c47dc699ac88507c4f5bb9f121c03808c5676a8078fe583e4649700546040516382027b6d60e01b81526004810183905233602482015290602090829060449082906001600160a01b03165afa908115610534575f91610d1e575b5015610cfe5790565b604051630276b5d960e01b81526004810191909152336024820152604490fd5b90506020813d602011610d51575b81610d3960209383610a90565b8101031261040857518015158103610408575f610cf5565b3d9150610d2c565b50610c3f610e0d565b46600103610d6f57600190565b4662aa36a703610d7f5761271190565b617a694614610d8c575f90565b5f1990565b7f9e7b61f58c47dc699ac88507c4f5bb9f121c03808c5676a8078fe583e4649700546001600160a01b031691823b1561040857604051635ca4b5b160e11b815260048101929092526001600160a01b03166024820152905f908290604490829084905af1801561053457610e025750565b610e0b90610a68565b565b5f80516020610e9083398151915254604051639cd07acb60e01b81525f60048201819052600560248301529091602091839160449183916001600160a01b03165af1908115610534575f91610e60575090565b90506020813d602011610e87575b81610e7b60209383610a90565b81010312610408575190565b3d9150610e6e56fe9e7b61f58c47dc699ac88507c4f5bb9f121c03808c5676a8078fe583e4649701a26469706673582212205b3ec5959cd8e6be06ceb7288fc2d61cb0237693c7936a039e59ab8ab60fa63b64736f6c63430008180033",
  "linkReferences": {},
  "deployedLinkReferences": {}
}