{
  "_format": "hh-sol-artifact-1",
  "contractName": "PoolManager",
  "sourceName": "contracts/PoolManager.sol",
  "abi": [
    {
      "inputs": [
        {
          "internalType": "address",
          "name": "_verifier",
          "type": "address"
        }
      ],
      "stateMutability": "nonpayable",
      "type": "constructor"
    },
    {
      "inputs": [],
      "name": "InvalidKMSSignatures",
      "type": "error"
    },
    {
      "inputs": [
        {
          "internalType": "address",
          "name": "owner",
          "type": "address"
        }
      ],
      "name": "OwnableInvalidOwner",
      "type": "error"
    },
    {
      "inputs": [
        {
          "internalType": "address",
          "name": "account",
          "type": "address"
        }
      ],
      "name": "OwnableUnauthorizedAccount",
      "type": "error"
    },
    {
      "inputs": [],
      "name": "ReentrancyGuardReentrantCall",
      "type": "error"
    },
    {
      "inputs": [
        {
          "internalType": "bytes32",
          "name": "handle",
          "type": "bytes32"
        },
        {
          "internalType": "address",
          "name": "sender",
          "type": "address"
        }
      ],
      "name": "SenderNotAllowedToUseHandle",
      "type": "error"
    },
    {
      "inputs": [],
      "name": "FhenixProtocolUnsupported",
      "type": "error"
    },
    {
      "anonymous": false,
      "inputs": [
        {
          "indexed": true,
          "internalType": "address",
          "name": "user",
          "type": "address"
        },
        {
          "indexed": true,
          "internalType": "address",
          "name": "tokenOnSource",
          "type": "address"
        },
        {
          "indexed": false,
          "internalType": "uint256",
          "name": "amount",
          "type": "uint256"
        }
      ],
      "name": "LiquidityAdded",
      "type": "event"
    },
    {
      "anonymous": false,
      "inputs": [
        {
          "indexed": true,
          "internalType": "address",
          "name": "user",
          "type": "address"
        },
        {
          "indexed": true,
          "internalType": "address",
          "name": "token",
          "type": "address"
        },
        {
          "indexed": false,
          "internalType": "uint256",
          "name": "amount",
          "type": "uint256"
        }
      ],
      "name": "LiquiditySlashed",
      "type": "event"
    },
    {
      "anonymous": false,
      "inputs": [
        {
          "indexed": true,
          "internalType": "address",
          "name": "user",
          "type": "address"
        },
        {
          "indexed": true,
          "internalType": "address",
          "name": "tokenOnSource",
          "type": "address"
        },
        {
          "indexed": false,
          "internalType": "uint256",
          "name": "amount",
          "type": "uint256"
        }
      ],
      "name": "LiquidityWithdrawn",
      "type": "event"
    },
    {
      "anonymous": false,
      "inputs": [
        {
          "indexed": true,
          "internalType": "address",
          "name": "previousOwner",
          "type": "address"
        },
        {
          "indexed": true,
          "internalType": "address",
          "name": "newOwner",
          "type": "address"
        }
      ],
      "name": "OwnershipTransferred",
      "type": "event"
    },
    {
      "anonymous": false,
      "inputs": [
        {
          "indexed": false,
          "internalType": "bytes32[]",
          "name": "handlesList",
          "type": "bytes32[]"
        },
        {
          "indexed": false,
          "internalType": "bytes",
          "name": "abiEncodedCleartexts",
          "type": "bytes"
        }
      ],
      "name": "PublicDecryptionVerified",
      "type": "event"
    },
    {
      "anonymous": false,
      "inputs": [
        {
          "indexed": true,
          "internalType": "uint64",
          "name": "chainId",
          "type": "uint64"
        },
        {
          "indexed": true,
          "internalType": "address",
          "name": "vault",
          "type": "address"
        },
        {
          "indexed": true,
          "internalType": "address",
          "name": "token",
          "type": "address"
        },
        {
          "indexed": false,
          "internalType": "bool",
          "name": "status",
          "type": "bool"
        }
      ],
      "name": "SourceChainConfigured",
      "type": "event"
    },
    {
      "anonymous": false,
      "inputs": [
        {
          "indexed": true,
          "internalType": "address",
          "name": "token",
          "type": "address"
        },
        {
          "indexed": false,
          "internalType": "bool",
          "name": "status",
          "type": "bool"
        }
      ],
      "name": "TokenWhitelisted",
      "type": "event"
    },
    {
      "anonymous": false,
      "inputs": [
        {
          "indexed": true,
          "internalType": "address",
          "name": "user",
          "type": "address"
        },
        {
          "indexed": true,
          "internalType": "address",
          "name": "tokenOnSource",
          "type": "address"
        },
        {
          "indexed": false,
          "internalType": "uint256",
          "name": "amount",
          "type": "uint256"
        },
        {
          "indexed": false,
          "internalType": "uint256",
          "name": "nonce",
          "type": "uint256"
        },
        {
          "indexed": false,
          "internalType": "uint64",
          "name": "destChainId",
          "type": "uint64"
        }
      ],
      "name": "WithdrawalAuthorized",
      "type": "event"
    },
    {
      "inputs": [],
      "name": "TRANSFER_EVENT_SIGNATURE",
      "outputs": [
        {
          "internalType": "bytes32",
          "name": "",
          "type": "bytes32"
        }
      ],
      "stateMutability": "view",
      "type": "function"
    },
    {
      "inputs": [],
      "name": "VERIFIER",
      "outputs": [
        {
          "internalType": "contract INativeQueryVerifier",
          "name": "",
          "type": "address"
        }
      ],
      "stateMutability": "view",
      "type": "function"
    },
    {
      "inputs": [
        {
          "internalType": "uint64",
          "name": "chainKey",
          "type": "uint64"
        },
        {
          "internalType": "uint64",
          "name": "blockHeight",
          "type": "uint64"
        },
        {
          "internalType": "bytes",
          "name": "encodedTransaction",
          "type": "bytes"
        },
        {
          "internalType": "bytes32",
          "name": "merkleRoot",
          "type": "bytes32"
        },
        {
          "components": [
            {
              "internalType": "bytes32",
              "name": "hash",
              "type": "bytes32"
            },
            {
              "internalType": "bool",
              "name": "isLeft",
              "type": "bool"
            }
          ],
          "internalType": "struct INativeQueryVerifier.MerkleProofEntry[]",
          "name": "siblings",
          "type": "tuple[]"
        },
        {
          "internalType": "bytes32",
          "name": "lowerEndpointDigest",
          "type": "bytes32"
        },
        {
          "internalType": "bytes32[]",
          "name": "continuityRoots",
          "type": "bytes32[]"
        }
      ],
      "name": "addLiquidityFromProof",
      "outputs": [],
      "stateMutability": "nonpayable",
      "type": "function"
    },
    {
      "inputs": [],
      "name": "confidentialProtocolId",
      "outputs": [
        {
          "internalType": "uint256",
          "name": "",
          "type": "uint256"
        }
      ],
      "stateMutability": "view",
      "type": "function"
    },
    {
      "inputs": [
        {
          "internalType": "address",
          "name": "token",
          "type": "address"
        },
        {
          "internalType": "euint64",
          "name": "amount",
          "type": "bytes32"
        }
      ],
      "name": "distributeInterest",
      "outputs": [],
      "stateMutability": "nonpayable",
      "type": "function"
    },
    {
      "inputs": [
        {
          "internalType": "uint256",
          "name": "nonce",
          "type": "uint256"
        },
        {
          "internalType": "bytes",
          "name": "abiEncodedClearResult",
          "type": "bytes"
        },
        {
          "internalType": "bytes",
          "name": "decryptionProof",
          "type": "bytes"
        }
      ],
      "name": "finalizeWithdrawal",
      "outputs": [],
      "stateMutability": "nonpayable",
      "type": "function"
    },
    {
      "inputs": [
        {
          "internalType": "address",
          "name": "user",
          "type": "address"
        },
        {
          "internalType": "address",
          "name": "token",
          "type": "address"
        }
      ],
      "name": "getAssetBalance",
      "outputs": [
        {
          "internalType": "euint64",
          "name": "",
          "type": "bytes32"
        }
      ],
      "stateMutability": "nonpayable",
      "type": "function"
    },
    {
      "inputs": [
        {
          "internalType": "address",
          "name": "user",
          "type": "address"
        },
        {
          "internalType": "address",
          "name": "token",
          "type": "address"
        }
      ],
      "name": "getLpShares",
      "outputs": [
        {
          "internalType": "euint64",
          "name": "",
          "type": "bytes32"
        }
      ],
      "stateMutability": "view",
      "type": "function"
    },
    {
      "inputs": [
        {
          "internalType": "address",
          "name": "token",
          "type": "address"
        }
      ],
      "name": "getPoolLiquidity",
      "outputs": [
        {
          "internalType": "uint64",
          "name": "",
          "type": "uint64"
        }
      ],
      "stateMutability": "view",
      "type": "function"
    },
    {
      "inputs": [
        {
          "internalType": "address",
          "name": "user",
          "type": "address"
        }
      ],
      "name": "getUserTotalCollateral",
      "outputs": [
        {
          "internalType": "euint64",
          "name": "",
          "type": "bytes32"
        }
      ],
      "stateMutability": "nonpayable",
      "type": "function"
    },
    {
      "inputs": [
        {
          "internalType": "address",
          "name": "",
          "type": "address"
        }
      ],
      "name": "isTokenWhitelisted",
      "outputs": [
        {
          "internalType": "bool",
          "name": "",
          "type": "bool"
        }
      ],
      "stateMutability": "view",
      "type": "function"
    },
    {
      "inputs": [],
      "name": "loanEngine",
      "outputs": [
        {
          "internalType": "address",
          "name": "",
          "type": "address"
        }
      ],
      "stateMutability": "view",
      "type": "function"
    },
    {
      "inputs": [],
      "name": "owner",
      "outputs": [
        {
          "internalType": "address",
          "name": "",
          "type": "address"
        }
      ],
      "stateMutability": "view",
      "type": "function"
    },
    {
      "inputs": [
        {
          "internalType": "uint256",
          "name": "",
          "type": "uint256"
        }
      ],
      "name": "pendingWithdrawals",
      "outputs": [
        {
          "internalType": "euint64",
          "name": "amount",
          "type": "bytes32"
        },
        {
          "internalType": "address",
          "name": "tokenOnSource",
          "type": "address"
        },
        {
          "internalType": "uint64",
          "name": "destChainId",
          "type": "uint64"
        },
        {
          "internalType": "bool",
          "name": "active",
          "type": "bool"
        }
      ],
      "stateMutability": "view",
      "type": "function"
    },
    {
      "inputs": [
        {
          "internalType": "address",
          "name": "",
          "type": "address"
        }
      ],
      "name": "pools",
      "outputs": [
        {
          "internalType": "uint64",
          "name": "totalLiquidity",
          "type": "uint64"
        },
        {
          "internalType": "uint64",
          "name": "totalShares",
          "type": "uint64"
        },
        {
          "internalType": "address",
          "name": "tokenOnSource",
          "type": "address"
        },
        {
          "internalType": "bool",
          "name": "isInitialized",
          "type": "bool"
        }
      ],
      "stateMutability": "view",
      "type": "function"
    },
    {
      "inputs": [
        {
          "internalType": "bytes32",
          "name": "",
          "type": "bytes32"
        }
      ],
      "name": "processedQueries",
      "outputs": [
        {
          "internalType": "bool",
          "name": "",
          "type": "bool"
        }
      ],
      "stateMutability": "view",
      "type": "function"
    },
    {
      "inputs": [],
      "name": "renounceOwnership",
      "outputs": [],
      "stateMutability": "nonpayable",
      "type": "function"
    },
    {
      "inputs": [
        {
          "internalType": "address",
          "name": "tokenOnSource",
          "type": "address"
        },
        {
          "internalType": "externalEuint64",
          "name": "encryptedAmount",
          "type": "bytes32"
        },
        {
          "internalType": "bytes",
          "name": "inputProof",
          "type": "bytes"
        },
        {
          "internalType": "uint64",
          "name": "destChainId",
          "type": "uint64"
        }
      ],
      "name": "requestWithdrawal",
      "outputs": [],
      "stateMutability": "nonpayable",
      "type": "function"
    },
    {
      "inputs": [
        {
          "internalType": "address",
          "name": "_loanEngine",
          "type": "address"
        }
      ],
      "name": "setLoanEngine",
      "outputs": [],
      "stateMutability": "nonpayable",
      "type": "function"
    },
    {
      "inputs": [
        {
          "internalType": "uint64",
          "name": "chainId",
          "type": "uint64"
        },
        {
          "internalType": "address",
          "name": "vault",
          "type": "address"
        },
        {
          "internalType": "address",
          "name": "token",
          "type": "address"
        },
        {
          "internalType": "bool",
          "name": "status",
          "type": "bool"
        }
      ],
      "name": "setSourceParams",
      "outputs": [],
      "stateMutability": "nonpayable",
      "type": "function"
    },
    {
      "inputs": [
        {
          "internalType": "address",
          "name": "token",
          "type": "address"
        },
        {
          "internalType": "bool",
          "name": "status",
          "type": "bool"
        }
      ],
      "name": "setWhitelistedToken",
      "outputs": [],
      "stateMutability": "nonpayable",
      "type": "function"
    },
    {
      "inputs": [
        {
          "internalType": "address",
          "name": "user",
          "type": "address"
        },
        {
          "internalType": "address",
          "name": "token",
          "type": "address"
        },
        {
          "internalType": "euint64",
          "name": "amount",
          "type": "bytes32"
        }
      ],
      "name": "slashLiquidity",
      "outputs": [],
      "stateMutability": "nonpayable",
      "type": "function"
    },
    {
      "inputs": [
        {
          "internalType": "uint64",
          "name": "",
          "type": "uint64"
        }
      ],
      "name": "sourceVaults",
      "outputs": [
        {
          "internalType": "address",
          "name": "",
          "type": "address"
        }
      ],
      "stateMutability": "view",
      "type": "function"
    },
    {
      "inputs": [
        {
          "internalType": "address",
          "name": "token",
          "type": "address"
        },
        {
          "internalType": "externalEuint64",
          "name": "encryptedAmount",
          "type": "bytes32"
        },
        {
          "internalType": "bytes",
          "name": "inputProof",
          "type": "bytes"
        },
        {
          "internalType": "uint64",
          "name": "clearAmount",
          "type": "uint64"
        }
      ],
      "name": "supply",
      "outputs": [],
      "stateMutability": "nonpayable",
      "type": "function"
    },
    {
      "inputs": [
        {
          "internalType": "address",
          "name": "newOwner",
          "type": "address"
        }
      ],
      "name": "transferOwnership",
      "outputs": [],
      "stateMutability": "nonpayable",
      "type": "function"
    },
    {
      "inputs": [
        {
          "internalType": "uint64",
          "name": "",
          "type": "uint64"
        },
        {
          "internalType": "address",
          "name": "",
          "type": "address"
        }
      ],
      "name": "whitelistedSourceTokens",
      "outputs": [
        {
          "internalType": "bool",
          "name": "",
          "type": "bool"
        }
      ],
      "stateMutability": "view",
      "type": "function"
    },
    {
      "inputs": [
        {
          "internalType": "uint256",
          "name": "",
          "type": "uint256"
        }
      ],
      "name": "whitelistedTokens",
      "outputs": [
        {
          "internalType": "address",
          "name": "",
          "type": "address"
        }
      ],
      "stateMutability": "view",
      "type": "function"
    },
    {
      "inputs": [],
      "name": "withdrawalNonce",
      "outputs": [
        {
          "internalType": "uint256",
          "name": "",
          "type": "uint256"
        }
      ],
      "stateMutability": "view",
      "type": "function"
    }
  ],
  "bytecode": "0x60a034620002df57601f62002e8338819003918201601f191683019291906001600160401b03841183851017620002e3578160209284926040968752833981010312620002df57516001600160a01b0380821691829003620002df573315620002c8575f549060018060a01b03199133838216175f55813391167f8be0079c531659141344cd1fd0a4f28419497f9722a3daafe3b4186f6b6457e05f80a360018055620000ab62000317565b5046600103620001d657620000bf62000317565b5083620000cb620002f7565b73ca2e8f1f656cd25c01f05d0b243ab1ecd4a8ffb6815273d82385dada1ae3e969447f20a3164f6213100e7560208201527377627828a55156b04ac0dc0eb30467f1a552bb03828201525b828151167f9e7b61f58c47dc699ac88507c4f5bb9f121c03808c5676a8078fe583e46497009085825416179055826020820151167f9e7b61f58c47dc699ac88507c4f5bb9f121c03808c5676a8078fe583e464970190858254161790550151167f9e7b61f58c47dc699ac88507c4f5bb9f121c03808c5676a8078fe583e46497029182541617905580155f14620001cd5750610fd26080525b51612b4f9081620003348239608051818181610ae40152611db80152f35b608052620001af565b4662aa36a7036200024757620001eb62000317565b5083620001f7620002f7565b73f0ffdc93b7e186bc2f8cb3daa75d86d1930a433d81527392c920834ec8941d2c77d188936e1f7a6f49c127602082015273be0e383937d564d7ff0bc3b46c51f0bf8d5c311a8282015262000116565b46617a6903620002b7576200025b62000317565b508362000267620002f7565b7350157cffd6bbfa2dece204a89ec419c23ef5755d815273e3a9105a3a932253a70f126eb1e3b589c643dd24602082015273be0e383937d564d7ff0bc3b46c51f0bf8d5c311a8282015262000116565b83516373cac13b60e01b8152600490fd5b8251631e4fbdf760e01b81525f6004820152602490fd5b5f80fd5b634e487b7160e01b5f52604160045260245ffd5b60405190606082016001600160401b03811183821017620002e357604052565b62000321620002f7565b905f82525f60208301525f604083015256fe6080806040526004361015610012575f80fd5b5f905f3560e01c90816308c84e7014611da6575080630d8f21be14611d155780632154bc4414611cd3578063239d42ee14611a225780633146f5d31461195357806333cc99ab146119245780633f274d23146118e457806343646f70146118bc5780634d5692d71461187b5780635632d1ac1461184a5780635735117a146118075780635f799abe1461169b578063715018a61461164457806376ce28f11461151f5780637b259db4146115025780637e89334f146114d65780638927b030146114b45780638d58ac83146108305780638da5cb5b146108095780639afa91b414610531578063a4063dbc146104c4578063b5af090f14610485578063c45a284a14610438578063e6150400146103da578063eab15c421461039f578063eedad82714610346578063f2fde38b146102b95763fad9570d14610152575f80fd5b346102b65760603660031901126102b65761016b611de7565b610173611dfd565b7fce1faa91212d49816af57dd1266050bfa9118589bd074312686a7411b09e70ef60018060a01b0380926101ac82600254163314612050565b16928385526102646020916003835261022f61021a61022960408a20976101dc60ff60018b015460a01c166123b8565b841697888b526004875260408b208a5f52875260405f20549283916001600160401b0361021181835460401c166044356126d3565b91541690612754565b6102248183612804565b612888565b90612999565b8588526004845260408820875f52845260405f20558487526004835260408720865f52835260405f205480156102a857612a70565b8285526004815260408520845f52815260405f20548015610295575b61028b903090612a70565b604051858152a380f35b5061028b6102a1612a1d565b9050610280565b506102b1612a1d565b612a70565b80fd5b50346102b65760203660031901126102b6576102d3611de7565b6102db6124fe565b6001600160a01b0390811690811561032d575f54826bffffffffffffffffffffffff60a01b8216175f55167f8be0079c531659141344cd1fd0a4f28419497f9722a3daafe3b4186f6b6457e05f80a380f35b604051631e4fbdf760e01b815260048101849052602490fd5b50346102b65760403660031901126102b6576040610362611f21565b916001600160401b03610373611dfd565b931681526006602052209060018060a01b03165f52602052602060ff60405f2054166040519015158152f35b50346102b657806003193601126102b65760206040517fddf252ad1be2c89b69c2b068fc378daa952ba7f163c4a11628f55a4df523b3ef8152f35b50346102b65760203660031901126102b65760406080916004358152600b6020522060ff6001825492015460405192835260018060a01b03811660208401526001600160401b038160a01c16604084015260e01c1615156060820152f35b50346102b65760403660031901126102b657610452611de7565b604061045c611dfd565b9260018060a01b03809316815260046020522091165f52602052602060405f2054604051908152f35b50346102b65760203660031901126102b65760209060ff906040906001600160a01b036104b0611de7565b168152600984522054166040519015158152f35b50346102b65760203660031901126102b6576080906001600160a01b039060ff90604090836104f1611de7565b16815260036020522080549260016001600160401b039201549160405194818116865260401c1660208501528116604084015260a01c1615156060820152f35b50346107a85760ff61054236611f64565b91929361054d6124a8565b6105a660018060a01b039161059b61059484831698895f5261058e60209960038b5260405f209861058760019e8f8c015460a01c166123b8565b3691611ecd565b90612529565b91336120a9565b906102248183612804565b906105e16105c76001600160401b03948561021181835460401c16876126d3565b335f526004875260405f20885f52875260405f2054612999565b335f526004865260405f20875f52865260405f2055335f526004855260405f20865f52855260405f205480156107f6575b61061d903390612a70565b335f526004855260405f20865f52855260405f205480156107e3575b610644903090612a70565b600a54925f1984146107cf57878401600a556040519461066386611e63565b8386528686019188835260408701911695868252838a6060830192818452885f52600b8b5260405f2090518155019351168354926001600160401b0360a01b905160a01b169160ff60e01b9051151560e01b169262ffffff60e81b16171717905581801592836107bc575b6106d9903090612a70565b916107ac575b604051916106ec83611e48565b8783528536818501376106fe83611fd1565b525f80516020612afa8339815191525416803b156107a8576107415f92918392604051948580948193637d6e912360e11b83528b600484015260248301906124cb565b03925af1801561079d5761078a575b506040519286845283015260408201527e0e48698e82158538114101d7b79ba88c651d7f3a55a6a866e14c51f64f8c7560603392a3805580f35b610795919650611e7e565b5f945f610750565b6040513d5f823e3d90fd5b5f80fd5b90506107b6612a1d565b906106df565b506106d96107c8612a1d565b90506106ce565b634e487b7160e01b5f52601160045260245ffd5b506106446107ef612a1d565b9050610639565b5061061d610802612a1d565b9050610612565b346107a8575f3660031901126107a8575f546040516001600160a01b039091168152602090f35b346107a85760e03660031901126107a857610849611f21565b6001600160401b0360243516602435036107a8576044356001600160401b0381116107a85761087c903690600401611f37565b9190608435926001600160401b0384116107a857366023850112156107a8576001600160401b038460040135116107a857366024856004013560061b860101116107a8576001600160401b0360c435116107a85736602360c4350112156107a8576001600160401b0360c43560040135116107a85736602460c4356004013560051b60c4350101116107a8576109106124a8565b6109223685600401356024870161213a565b80515f9591815b611454575050604051946001600160401b0360c01b808660c01b16602088015260243560c01b1660288701526030860152603085528460608101106001600160401b0360608701111761144057606085016040528451602086012094855f52600560205260ff60405f2054166113fa57506109bf604051916109aa83611e48565b6064358352369060248160040135910161213a565b60208201526040516109d081611e48565b60a43581526109e460c43560040135611fba565b6109f16040519182611e91565b60c43560048101358252602401602082015b602460c4356004013560051b60c435010182106113ea57505060208201526040519182916302f4d16760e01b83526001600160401b03871660048401526001600160401b0360243516602484015260a06044840152610a6660a4840186886121d1565b9160031984840301606485015260206060816040860193805187520151946040838201528551809452019301905f5b8181106113c35750505060031983830301608484015260206060816040850193805186520151936040838201528451809452019201905f5b8181106113aa57506020939283900391508290505f7f00000000000000000000000000000000000000000000000000000000000000006001600160a01b03165af190811561079d575f9161137b575b5015611336576040516306eae3bf60e11b815260206004820152915f9183918291610b4c916024840191906121d1565b038173__$eb2e2f684bffbc36e7cf45ce0012b95bdf$__5af490811561079d575f91611284575b50600160ff825116036112345760405190635401482560e01b8252604060048301528160c481019160ff81511660448301526001600160401b03602082015116606483015260408101519260806084840152835180915260e4830190602060e48260051b8601019501915f905b8282106111a75750505050610c075f936060849301516043198483030160a4850152612393565b7fddf252ad1be2c89b69c2b068fc378daa952ba7f163c4a11628f55a4df523b3ef6024830152038173__$eb2e2f684bffbc36e7cf45ce0012b95bdf$__5af490811561079d575f9161116a575b50805115611125575f916001600160401b0381165f52600760205260018060a01b0360405f2054169182156110e0575f5b81518110156110d7576001600160a01b03610ca08284611fde565b5151166001600160401b0384165f52600660205260405f20815f5260205260ff60405f205416610cd4575b50600101610c85565b60036020610ce28486611fde565b51015151036110a1576020610cf78385611fde565b51015180516001101561108d57604001516001600160a01b0316906020610d1e8486611fde565b51015180516002101561108d57606001516001600160a01b03168614610d445750610ccb565b9450945060409250610d5591611fde565b5101516020818051810103126107a85760200151916001600160401b038316825f52600360205260405f2090600182019060ff825460a01c16155f1461101257825467ffffffffffffffff60401b1982166fffffffffffffffffffffffffffffffff1990911617604082901b67ffffffffffffffff60401b1617909255805460ff60a01b1916600160a01b1781555b80546001600160a01b031916841790555f80516020612ada83398151915254604051639cd07acb60e01b81526001600160401b0392909216600483015260056024830152602090829060449082905f906001600160a01b03165af190811561079d575f91610fe0575b50815f52600460205260405f20835f5260205260405f205415155f14610fc457610e8d90825f52600460205260405f20845f5260205260405f20546123f5565b815f52600460205260405f20835f5260205260405f20555b805f52600460205260405f20825f5260205260405f2054818115610fb0575b610ecd91612a70565b805f52600460205260405f20825f5260205260405f20548015610f9d575b610ef6903090612a70565b7f9d278c56ba6dc86a12eefe6b43112bd6e06648eb4ec0b950ee2d783d40e2acb46020600194604051908152a35b15610f47575f52600560205260405f20600160ff19825416179055600180555f80f35b60405162461bcd60e51b815260206004820152602860248201527f4e6f2076616c6964206465706f73697420746f204c69717569646974795661756044820152671b1d08199bdd5b9960c21b6064820152608490fd5b50610ef6610fa9612a1d565b9050610eeb565b610ecd9150610fbd612a1d565b9150610ec4565b815f52600460205260405f20835f5260205260405f2055610ea5565b90506020813d60201161100a575b81610ffb60209383611e91565b810103126107a8575185610e4d565b3d9150610fee565b918061106161108892546001600160401b03611033818360401c1688612006565b918161104f816110468185168097612019565b16998a9561208e565b16908219161780855560401c1661208e565b67ffffffffffffffff60401b82549160401b169067ffffffffffffffff60401b1916179055565b610de4565b634e487b7160e01b5f52603260045260245ffd5b60405162461bcd60e51b815260206004820152600e60248201526d496e76616c696420746f7069637360901b6044820152606490fd5b50505050610f24565b60405162461bcd60e51b815260206004820152601b60248201527f536f7572636520636861696e206e6f7420636f6e6669677572656400000000006044820152606490fd5b60405162461bcd60e51b815260206004820152601860248201527f4e6f205472616e73666572206576656e747320666f756e6400000000000000006044820152606490fd5b90503d805f833e61117b8183611e91565b81016020828203126107a85781516001600160401b0381116107a8576111a19201612254565b83610c54565b91939450919460e319878203018252855190606081019160018060a01b0381511682526020810151926060602084015283518091526020608084019401905f5b81811061121e5750505061120e600193602093604085940151906040818403910152612393565b9701920192018694939192610be0565b82518652602095860195909201916001016111e7565b60405162461bcd60e51b815260206004820152602260248201527f5472616e73616374696f6e206661696c6564206f6e20736f757263652063686160448201526134b760f11b6064820152608490fd5b90503d805f833e6112958183611e91565b8101906020818303126107a8578051906001600160401b0382116107a857016080818303126107a857604051916112cb83611e63565b815160ff811681036107a85783526112e560208301611ff2565b602084015260408201516001600160401b0381116107a85781611309918401612254565b604084015260608201516001600160401b0381116107a85761132b9201612212565b606082015283610b73565b60405162461bcd60e51b815260206004820152601a60248201527f4e617469766520766572696669636174696f6e206661696c65640000000000006044820152606490fd5b61139d915060203d6020116113a3575b6113958183611e91565b8101906121b9565b85610b1c565b503d61138b565b8251845285945060209384019390920191600101610acd565b82518051865260209081015115158187015287965060409095019490920191600101610a95565b8135815260209182019101610a03565b606060649162461bcd60e51b82820152602083820152601d60848201527f5472616e73616374696f6e20616c72656164792070726f63657373656400000060a482015201fd5b634e487b7160e01b5f52604160045260245ffd5b9095808060011b04600214811517156107cf575f1987018781116107cf5761147e60209184611fde565b510151156114ac5760ff60015b168160011b01809160011b116107cf579580156107cf575f19019081610929565b60ff5f61148b565b346107a8575f3660031901126107a85760206114ce6127d5565b604051908152f35b346107a85760403660031901126107a85760206114ce6114f4611de7565b6114fc611dfd565b906120a9565b346107a8575f3660031901126107a8576020600a54604051908152f35b346107a85760403660031901126107a857611538611de7565b60243590811515908183036107a85761154f6124fe565b8280611622575b6115b1575b7fef81a9943b96c8df4ef243401c9bf5159146166211356898b52d382086168d92916115a860209260018060a01b031694855f526009845260405f209060ff801983541691151516179055565b604051908152a2005b6008549168010000000000000000831015611440576115a86020926115fd8560017fef81a9943b96c8df4ef243401c9bf5159146166211356898b52d382086168d929701600855611e13565b60018060a01b039082549060031b91808516831b921b1916179055925050915061155b565b506001600160a01b0381165f9081526009602052604090205460ff1615611556565b346107a8575f3660031901126107a85761165c6124fe565b5f80546001600160a01b0319811682556001600160a01b03167f8be0079c531659141344cd1fd0a4f28419497f9722a3daafe3b4186f6b6457e08280a3005b346107a85761058e6116dc7f9d278c56ba6dc86a12eefe6b43112bd6e06648eb4ec0b950ee2d783d40e2acb46116d036611f64565b95939691903691611ecd565b335f526020906004825260405f209460018060a01b031694855f52825260405f205415155f146117ed5761172490335f526004835260405f20865f52835260405f20546123f5565b335f526004825260405f20855f52825260405f20555b835f526003815260405f208054906001600160401b03918261175e8782841661208e565b16906001600160401b031916179055335f526004825260405f20855f52825260405f205480156117da575b611794903390612a70565b335f526004825260405f20855f52825260405f205480156117c7575b6117bb903090612a70565b604051931683523392a3005b506117bb6117d3612a1d565b90506117b0565b506117946117e6612a1d565b9050611789565b335f526004825260405f20855f52825260405f205561173a565b346107a85760203660031901126107a857611820611de7565b6118286124fe565b600280546001600160a01b0319166001600160a01b0392909216919091179055005b346107a85760403660031901126107a857611863611de7565b5061187960018060a01b03600254163314612050565b005b346107a85760203660031901126107a8576001600160a01b0361189c611de7565b165f52600360205260206001600160401b0360405f205416604051908152f35b346107a8575f3660031901126107a8576002546040516001600160a01b039091168152602090f35b346107a85760203660031901126107a8576001600160401b03611905611f21565b165f526007602052602060018060a01b0360405f205416604051908152f35b346107a85760203660031901126107a8576004355f526005602052602060ff60405f2054166040519015158152f35b346107a85760803660031901126107a85761196c611f21565b611974611dfd565b6001600160a01b0360443581811693908490036107a8576064358015158082036107a857611a196020926001600160401b037fd99364c9510dda989a9ade175a932d6dd9c5e5ca46b63f4cd7fec96a0a7fcf12956119d06124fe565b1695865f526007855260405f20971696876bffffffffffffffffffffffff60a01b8254161790556006845260405f20885f52845260405f209060ff801983541691151516179055565b604051908152a4005b346107a8576003196060368201126107a8576001600160401b036024358181116107a857611a54903690600401611f03565b6044358281116107a857611a6c903690600401611f03565b611a746124a8565b6004355f52602093600b855260405f20600181019160ff835460e01c1615611ca15760405191611aa383611e48565b6001835287368185013754611ab783611fd1565b528660018060a01b0394857f9e7b61f58c47dc699ac88507c4f5bb9f121c03808c5676a8078fe583e46497025416611b265f89611b35604051978896879586946378542ead60e01b865260606004870152611b168d60648801906124cb565b9084878303016024880152612393565b91848303016044850152612393565b03925af190811561079d575f91611c84575b5015611c7257611b897fc6366bab028b8d033cb362cfd1f2f3457ef4e92fc738b6788b90d5a7846367a091611b966040519283926040845260408401906124cb565b8281038a84015287612393565b0390a184838051810103126107a857611bd1857f83aa598dd3e269af677698c6847b3ba594a67d286a771d01099aafa911a91b649401611ff2565b82825460ff60e01b1981168455165f526003865260405f209085811695611c43611c1b8883611c14875482611c0c818360401c168096612006565b911690612019565b1690612037565b845467ffffffffffffffff60401b191660409190911b67ffffffffffffffff60401b16178455565b611c51835492828416612037565b16906001600160401b0319161790555416926040519283523392a360018055005b60405163cf6c44e960e01b8152600490fd5b611c9b9150873d89116113a3576113958183611e91565b87611b47565b60405162461bcd60e51b815260048101889052600a6024820152694e6f742061637469766560b01b6044820152606490fd5b346107a85760203660031901126107a8576004356008548110156107a857611cfc602091611e13565b905460405160039290921b1c6001600160a01b03168152f35b346107a8576020806003193601126107a857611d2f611de7565b611d37612a1d565b915f5b600854811015611d9b57611d4d81611e13565b905460039190911b1c6001600160a01b03165f81815260098452604090205460ff16611d7d575b50600101611d3a565b60019194611d8e611d9492866120a9565b906123f5565b9390611d74565b602084604051908152f35b346107a8575f3660031901126107a8577f00000000000000000000000000000000000000000000000000000000000000006001600160a01b03168152602090f35b600435906001600160a01b03821682036107a857565b602435906001600160a01b03821682036107a857565b60085481101561108d5760085f527ff3f7a9fe364faab93b216da50a3214154f22a0a2b415b23a84c8169e8b636ee301905f90565b604081019081106001600160401b0382111761144057604052565b608081019081106001600160401b0382111761144057604052565b6001600160401b03811161144057604052565b90601f801991011681019081106001600160401b0382111761144057604052565b6001600160401b03811161144057601f01601f191660200190565b929192611ed982611eb2565b91611ee76040519384611e91565b8294818452818301116107a8578281602093845f960137010152565b9080601f830112156107a857816020611f1e93359101611ecd565b90565b600435906001600160401b03821682036107a857565b9181601f840112156107a8578235916001600160401b0383116107a857602083818601950101116107a857565b60806003198201126107a8576004356001600160a01b03811681036107a85791602435916044356001600160401b03918282116107a857611fa791600401611f37565b9290929160643590811681036107a85790565b6001600160401b0381116114405760051b60200190565b80511561108d5760200190565b805182101561108d5760209160051b010190565b51906001600160401b03821682036107a857565b818102929181159184041417156107cf57565b8115612023570490565b634e487b7160e01b5f52601260045260245ffd5b6001600160401b0391821690821603919082116107cf57565b1561205757565b60405162461bcd60e51b815260206004820152600f60248201526e4f6e6c79204c6f616e456e67696e6560881b6044820152606490fd5b9190916001600160401b03808094169116019182116107cf57565b6001600160a01b039182165f81815260036020526040902060018101549293909260a01c60ff16158015612125575b61211957611f1e93165f52600460205260405f20905f5260205260405f205461210d6001600160401b039182845416906126d3565b915460401c1690612754565b50505050611f1e612a1d565b506001600160401b03835460401c16156120d8565b92919261214682611fba565b6040926121566040519283611e91565b819581835260208093019160061b8401938185116107a857915b84831061217f57505050505050565b85838303126107a85785519061219482611e48565b83358252848401359081151582036107a857828692838a950152815201920191612170565b908160209103126107a8575180151581036107a85790565b908060209392818452848401375f828201840152601f01601f1916010190565b5f5b8381106122025750505f910152565b81810151838201526020016121f3565b81601f820112156107a857805161222881611eb2565b926122366040519485611e91565b818452602082840101116107a857611f1e91602080850191016121f1565b9080601f830112156107a85781519160209161226f84611fba565b9360409061227f82519687611e91565b808652848601918560059260051b860101948486116107a857868101935b8685106122af57505050505050505090565b84516001600160401b03908181116107a857830191606080601f19858b0301126107a85785519080820182811085821117611440578752848c01516001600160a01b03811681036107a8578252868501518481116107a85785018a603f820112156107a857808d809201518961232482611fba565b9361233182519586611e91565b8285528401918c1b830101918d83116107a8578f908b01915b83831061238257509150508301528401519283116107a857612373898c80969581960101612212565b8682015281520194019361229d565b819083518152019101908f9061234a565b906020916123ac815180928185528580860191016121f1565b601f01601f1916010190565b156123bf57565b60405162461bcd60e51b815260206004820152600e60248201526d141bdbdb081b9bdd08199bdd5b9960921b6044820152606490fd5b908115612498575b8015612486575b602090606460018060a01b035f80516020612ada8339815191525416935f604051958694859363022f65e760e31b8552600485015260248401528160448401525af190811561079d575f91612457575090565b90506020813d60201161247e575b8161247260209383611e91565b810103126107a8575190565b3d9150612465565b506020612491612a1d565b9050612404565b90506124a2612a1d565b906123fd565b6002600154146124b9576002600155565b604051633ee5aeb560e01b8152600490fd5b9081518082526020808093019301915f5b8281106124ea575050505090565b8351855293810193928101926001016124dc565b5f546001600160a01b0316330361251157565b60405163118cdaa760e01b8152336004820152602490fd5b81519091901561262e575f80516020612ada8339815191525460405163045fc19560e11b81526004810193909352336024840152608060448401526001600160a01b039160209184919084169082905f90829061258a906084830190612393565b6005606483015203925af191821561079d575f926125fa575b505f80516020612afa8339815191525416803b156107a857604051630f8e573b60e21b815260048101839052336024820152905f908290604490829084905af1801561079d576125f1575090565b611f1e90611e7e565b9091506020813d602011612626575b8161261660209383611e91565b810103126107a85751905f6125a3565b3d9150612609565b5080156126ca575f80516020612afa833981519152546040516382027b6d60e01b81526004810183905233602482015290602090829060449082906001600160a01b03165afa90811561079d575f916126ab575b501561268b5790565b604051630276b5d960e01b81526004810191909152336024820152604490fd5b6126c4915060203d6020116113a3576113958183611e91565b5f612682565b50611f1e612a1d565b6001600160401b03916020918015612742575b5f80516020612ada83398151915254604051630afe14ad60e31b81526004810192909252919093166024840152600160f81b6044840152829060649082905f906001600160a01b03165af190811561079d575f91612457575090565b50606461274d612a1d565b90506126e6565b6001600160401b039160209180156127c3575b5f80516020612ada83398151915254604051635a53accb60e01b81526004810192909252919093166024840152600160f81b6044840152829060649082905f906001600160a01b03165af190811561079d575f91612457575090565b5060646127ce612a1d565b9050612767565b466001036127e257600190565b4662aa36a7036127f25761271190565b617a6946146127ff575f90565b5f1990565b908115612878575b8015612866575b602090606460018060a01b035f80516020612ada8339815191525416935f6040519586948593631391547f60e01b8552600485015260248401528160448401525af190811561079d575f91612457575090565b506020612871612a1d565b9050612813565b9050612882612a1d565b9061280c565b91908215612915575b8015612907575b81156128f1575b6064602092935f60018060a01b035f80516020612ada83398151915254166040519687958694637702dcff60e01b86526004860152602485015260448401525af190811561079d575f91612457575090565b6020915060646128ff612a1d565b92505061289f565b50612910612a1d565b612898565b91505f602060018060a01b035f80516020612ada8339815191525416604460405180948193639cd07acb60e01b83528160048401528160248401525af190811561079d575f91612967575b5091612891565b90506020813d602011612991575b8161298260209383611e91565b810103126107a857515f612960565b3d9150612975565b908115612a0d575b80156129fb575b602090606460018060a01b035f80516020612ada8339815191525416935f60405195869485936303056db360e31b8552600485015260248401528160448401525af190811561079d575f91612457575090565b506020612a06612a1d565b90506129a8565b9050612a17612a1d565b906129a1565b5f80516020612ada83398151915254604051639cd07acb60e01b81525f60048201819052600560248301529091602091839160449183916001600160a01b03165af190811561079d575f91612457575090565b5f80516020612afa833981519152546001600160a01b031691823b156107a857604051635ca4b5b160e11b815260048101929092526001600160a01b03166024820152905f908290604490829084905af1801561079d57612ace5750565b612ad790611e7e565b56fe9e7b61f58c47dc699ac88507c4f5bb9f121c03808c5676a8078fe583e46497019e7b61f58c47dc699ac88507c4f5bb9f121c03808c5676a8078fe583e4649700a2646970667358221220b94e31c76bc06fd271c2d7295a4e6043d8084adf458f82c6032dfbc3b551e86b64736f6c63430008180033",
  "linkReferences": {
    "contracts/interfaces/EvmV1Decoder.sol": {
      "EvmV1Decoder": [
        {
          "length": 20,
          "start": 3716
        },
        {
          "length": 20,
          "start": 3941
        }
      ]
    }
  },
  "deployedLinkReferences": {
    "contracts/interfaces/EvmV1Decoder.sol": {
      "EvmV1Decoder": [
        {
          "length": 20,
          "start": 2896
        },
        {
          "length": 20,
          "start": 3121
        }
      ]
    }
  }
}