{
  "_format": "hh-sol-artifact-1",
  "contractName": "ProtocolFunds",
  "sourceName": "contracts/ProtocolFunds.sol",
  "abi": [
    {
      "inputs": [
        {
          "internalType": "address",
          "name": "initialOwner",
          "type": "address"
        }
      ],
      "stateMutability": "nonpayable",
      "type": "constructor"
    },
    {
      "inputs": [
        {
          "internalType": "address",
          "name": "owner",
          "type": "address"
        }
      ],
      "name": "OwnableInvalidOwner",
      "type": "error"
    },
    {
      "inputs": [
        {
          "internalType": "address",
          "name": "account",
          "type": "address"
        }
      ],
      "name": "OwnableUnauthorizedAccount",
      "type": "error"
    },
    {
      "inputs": [],
      "name": "FhenixProtocolUnsupported",
      "type": "error"
    },
    {
      "anonymous": false,
      "inputs": [
        {
          "indexed": true,
          "internalType": "address",
          "name": "token",
          "type": "address"
        }
      ],
      "name": "FundsDeposited",
      "type": "event"
    },
    {
      "anonymous": false,
      "inputs": [
        {
          "indexed": true,
          "internalType": "address",
          "name": "token",
          "type": "address"
        },
        {
          "indexed": true,
          "internalType": "address",
          "name": "to",
          "type": "address"
        }
      ],
      "name": "FundsWithdrawn",
      "type": "event"
    },
    {
      "anonymous": false,
      "inputs": [
        {
          "indexed": true,
          "internalType": "address",
          "name": "previousOwner",
          "type": "address"
        },
        {
          "indexed": true,
          "internalType": "address",
          "name": "newOwner",
          "type": "address"
        }
      ],
      "name": "OwnershipTransferred",
      "type": "event"
    },
    {
      "inputs": [],
      "name": "confidentialProtocolId",
      "outputs": [
        {
          "internalType": "uint256",
          "name": "",
          "type": "uint256"
        }
      ],
      "stateMutability": "view",
      "type": "function"
    },
    {
      "inputs": [
        {
          "internalType": "address",
          "name": "token",
          "type": "address"
        },
        {
          "internalType": "euint64",
          "name": "amount",
          "type": "bytes32"
        }
      ],
      "name": "deposit",
      "outputs": [],
      "stateMutability": "nonpayable",
      "type": "function"
    },
    {
      "inputs": [
        {
          "internalType": "address",
          "name": "token",
          "type": "address"
        }
      ],
      "name": "getTokenBalance",
      "outputs": [
        {
          "internalType": "euint64",
          "name": "",
          "type": "bytes32"
        }
      ],
      "stateMutability": "view",
      "type": "function"
    },
    {
      "inputs": [],
      "name": "owner",
      "outputs": [
        {
          "internalType": "address",
          "name": "",
          "type": "address"
        }
      ],
      "stateMutability": "view",
      "type": "function"
    },
    {
      "inputs": [],
      "name": "renounceOwnership",
      "outputs": [],
      "stateMutability": "nonpayable",
      "type": "function"
    },
    {
      "inputs": [
        {
          "internalType": "address",
          "name": "newOwner",
          "type": "address"
        }
      ],
      "name": "transferOwnership",
      "outputs": [],
      "stateMutability": "nonpayable",
      "type": "function"
    },
    {
      "inputs": [
        {
          "internalType": "address",
          "name": "token",
          "type": "address"
        },
        {
          "internalType": "euint64",
          "name": "amount",
          "type": "bytes32"
        },
        {
          "internalType": "address",
          "name": "to",
          "type": "address"
        }
      ],
      "name": "withdraw",
      "outputs": [],
      "stateMutability": "nonpayable",
      "type": "function"
    }
  ],
  "bytecode": "0x60803461029957601f610b6b38819003918201601f191683019291906001600160401b0384118385101761029d57816020928492604096875283398101031261029957516001600160a01b0380821691829003610299578115610282575f80546001600160a01b0319808216851783559391908316907f8be0079c531659141344cd1fd0a4f28419497f9722a3daafe3b4186f6b6457e09080a36100a16102d0565b504660010361019c576100b26102d0565b50826100bc6102b1565b73ca2e8f1f656cd25c01f05d0b243ab1ecd4a8ffb6815273d82385dada1ae3e969447f20a3164f6213100e7560208201527377627828a55156b04ac0dc0eb30467f1a552bb03828201525b828151167f9e7b61f58c47dc699ac88507c4f5bb9f121c03808c5676a8078fe583e46497009085825416179055826020820151167f9e7b61f58c47dc699ac88507c4f5bb9f121c03808c5676a8078fe583e464970190858254161790550151167f9e7b61f58c47dc699ac88507c4f5bb9f121c03808c5676a8078fe583e4649702918254161790555161088090816102eb8239f35b4662aa36a703610207576101ae6102d0565b50826101b86102b1565b73f0ffdc93b7e186bc2f8cb3daa75d86d1930a433d81527392c920834ec8941d2c77d188936e1f7a6f49c127602082015273be0e383937d564d7ff0bc3b46c51f0bf8d5c311a82820152610107565b46617a6903610271576102186102d0565b50826102226102b1565b7350157cffd6bbfa2dece204a89ec419c23ef5755d815273e3a9105a3a932253a70f126eb1e3b589c643dd24602082015273be0e383937d564d7ff0bc3b46c51f0bf8d5c311a82820152610107565b82516373cac13b60e01b8152600490fd5b8251631e4fbdf760e01b81525f6004820152602490fd5b5f80fd5b634e487b7160e01b5f52604160045260245ffd5b60405190606082016001600160401b0381118382101761029d57604052565b6102d86102b1565b905f82525f60208301525f604083015256fe604060808152600480361015610013575f80fd5b5f3560e01c806332d5ea45146103315780633aecd0e3146102fa578063715018a6146102a35780638927b030146102805780638da5cb5b14610259578063b9e1aa03146100f75763f2fde38b14610068575f80fd5b346100f35760203660031901126100f357610081610676565b9061008a61068c565b6001600160a01b039182169283156100dd5750505f54826bffffffffffffffffffffffff60a01b8216175f55167f8be0079c531659141344cd1fd0a4f28419497f9722a3daafe3b4186f6b6457e05f80a3005b905f6024925191631e4fbdf760e01b8352820152fd5b5f80fd5b50346100f357816003193601126100f357610110610676565b9160243560018060a01b0380941693845f5260209360018552835f20805415155f1461024857908592915491848315610238575b15610220575b905f6064927f9e7b61f58c47dc699ac88507c4f5bb9f121c03808c5676a8078fe583e464970154168751968795869463022f65e760e31b865285015260248401528160448401525af1908115610216575f916101e7575b506101c092600191855f52828252835f20555b845f52525f20546106b7565b507f159f8dfa9b69f5058b34dbc301206502f66fe3fb36973690ce03dbdb1f7d5c7a5f80a2005b90508281813d831161020f575b6101fe8183610793565b810103126100f357516101c06101a1565b503d6101f4565b82513d5f823e3d90fd5b93506064905f61022e6107b5565b959192505061014a565b92506102426107b5565b92610144565b6101c09592506001939150556101b4565b82346100f3575f3660031901126100f3575f5490516001600160a01b039091168152602090f35b82346100f3575f3660031901126100f35760209061029c610764565b9051908152f35b346100f3575f3660031901126100f3576102bb61068c565b5f80546001600160a01b0319811682556001600160a01b03167f8be0079c531659141344cd1fd0a4f28419497f9722a3daafe3b4186f6b6457e08280a3005b82346100f35760203660031901126100f3576020906001600160a01b0361031f610676565b165f5260018252805f20549051908152f35b50346100f35760603660031901126100f35761034b610676565b6044356001600160a01b038181169460243594909390928690036100f357819061037361068c565b1693845f5260209060018252845f2054928582859086159485610666575b8681159384610656575b60648b5f7f9e7b61f58c47dc699ac88507c4f5bb9f121c03808c5676a8078fe583e4649701988a8a541690519788958694631391547f60e01b865285015260248401528160448401525af191821561064c57898893928c925f94610617575b50888b9196851561058e575b61057e575b610568575b6064925f918989541691519788968795637702dcff60e01b8752860152602485015260448401525af190811561055e575f91610531575b50809593610521575b15610506575b945f6064928596975416885197889586946303056db360e31b865285015260248401528160448401525af19182156104fc575f926104cb575b506104a49260018392865f52525f20556106b7565b507f827966c9d7aba0930209b1790b4ca642442374ffc3c9ff99185ba1863b0756575f80a3005b91508082813d83116104f5575b6104e28183610793565b810103126100f3579051906104a461048f565b503d6104d8565b83513d5f823e3d90fd5b948394505f6064926105166107b5565b965092505094610456565b925061052b6107b5565b92610450565b90508481813d8311610557575b6105488183610793565b810103126100f357515f610447565b503d61053e565b88513d5f823e3d90fd5b505f6064926105756107b5565b91509250610410565b95506105886107b5565b9561040b565b95925f80939650604492508a8a541695519586948593639cd07acb60e01b85528401528160248401525af190811561060d57889392888d938d935f916105d6575b5094610406565b9693505050915083813d8311610606575b6105f18183610793565b810103126100f357898b91888a95515f6105cf565b503d6105e7565b8b513d5f823e3d90fd5b94925092505082813d8311610645575b6106318183610793565b810103126100f3578989889351925f6103fa565b503d610627565b8a513d5f823e3d90fd5b92506106606107b5565b9261039b565b91506106706107b5565b91610391565b600435906001600160a01b03821682036100f357565b5f546001600160a01b0316330361069f57565b60405163118cdaa760e01b8152336004820152602490fd5b8015610756575b7f9e7b61f58c47dc699ac88507c4f5bb9f121c03808c5676a8078fe583e4649700546001600160a01b0316803b156100f3575f8091604460405180948193635ca4b5b160e11b83528760048401523060248401525af1801561074b57610722575090565b67ffffffffffffffff81116107375760405290565b634e487b7160e01b5f52604160045260245ffd5b6040513d5f823e3d90fd5b5061075f6107b5565b6106be565b4660010361077157600190565b4662aa36a7036107815761271190565b617a69461461078e575f90565b5f1990565b90601f8019910116810190811067ffffffffffffffff82111761073757604052565b7f9e7b61f58c47dc699ac88507c4f5bb9f121c03808c5676a8078fe583e464970154604051639cd07acb60e01b81525f60048201819052600560248301529091602091839160449183916001600160a01b03165af190811561074b575f9161081b575090565b90506020813d602011610842575b8161083660209383610793565b810103126100f3575190565b3d915061082956fea2646970667358221220b571249157093146d3f6fe07f88f8033085b66d033f63929d4d8d2236fa60baf64736f6c63430008180033",
  "linkReferences": {},
  "deployedLinkReferences": {}
}