{
  "_format": "hh-sol-artifact-1",
  "contractName": "ScoreManager",
  "sourceName": "contracts/ScoreManager.sol",
  "abi": [
    {
      "inputs": [
        {
          "internalType": "address",
          "name": "_poolManager",
          "type": "address"
        },
        {
          "internalType": "address",
          "name": "_creditOracle",
          "type": "address"
        }
      ],
      "stateMutability": "nonpayable",
      "type": "constructor"
    },
    {
      "inputs": [
        {
          "internalType": "address",
          "name": "owner",
          "type": "address"
        }
      ],
      "name": "OwnableInvalidOwner",
      "type": "error"
    },
    {
      "inputs": [
        {
          "internalType": "address",
          "name": "account",
          "type": "address"
        }
      ],
      "name": "OwnableUnauthorizedAccount",
      "type": "error"
    },
    {
      "inputs": [],
      "name": "FhenixProtocolUnsupported",
      "type": "error"
    },
    {
      "anonymous": false,
      "inputs": [
        {
          "indexed": true,
          "internalType": "address",
          "name": "newOracle",
          "type": "address"
        }
      ],
      "name": "OracleUpdated",
      "type": "event"
    },
    {
      "anonymous": false,
      "inputs": [
        {
          "indexed": true,
          "internalType": "address",
          "name": "previousOwner",
          "type": "address"
        },
        {
          "indexed": true,
          "internalType": "address",
          "name": "newOwner",
          "type": "address"
        }
      ],
      "name": "OwnershipTransferred",
      "type": "event"
    },
    {
      "anonymous": false,
      "inputs": [
        {
          "indexed": true,
          "internalType": "address",
          "name": "user",
          "type": "address"
        },
        {
          "indexed": false,
          "internalType": "uint32",
          "name": "newScore",
          "type": "uint32"
        },
        {
          "indexed": false,
          "internalType": "string",
          "name": "reason",
          "type": "string"
        }
      ],
      "name": "ScoreUpdated",
      "type": "event"
    },
    {
      "inputs": [],
      "name": "MAX_SCORE",
      "outputs": [
        {
          "internalType": "uint32",
          "name": "",
          "type": "uint32"
        }
      ],
      "stateMutability": "view",
      "type": "function"
    },
    {
      "inputs": [],
      "name": "MIN_SCORE",
      "outputs": [
        {
          "internalType": "uint32",
          "name": "",
          "type": "uint32"
        }
      ],
      "stateMutability": "view",
      "type": "function"
    },
    {
      "inputs": [],
      "name": "confidentialProtocolId",
      "outputs": [
        {
          "internalType": "uint256",
          "name": "",
          "type": "uint256"
        }
      ],
      "stateMutability": "view",
      "type": "function"
    },
    {
      "inputs": [],
      "name": "creditOracle",
      "outputs": [
        {
          "internalType": "contract CreditOracle",
          "name": "",
          "type": "address"
        }
      ],
      "stateMutability": "view",
      "type": "function"
    },
    {
      "inputs": [
        {
          "internalType": "address",
          "name": "user",
          "type": "address"
        }
      ],
      "name": "getCreditLimit",
      "outputs": [
        {
          "internalType": "euint64",
          "name": "",
          "type": "bytes32"
        }
      ],
      "stateMutability": "nonpayable",
      "type": "function"
    },
    {
      "inputs": [
        {
          "internalType": "address",
          "name": "user",
          "type": "address"
        }
      ],
      "name": "getScore",
      "outputs": [
        {
          "internalType": "euint32",
          "name": "",
          "type": "bytes32"
        }
      ],
      "stateMutability": "nonpayable",
      "type": "function"
    },
    {
      "inputs": [],
      "name": "owner",
      "outputs": [
        {
          "internalType": "address",
          "name": "",
          "type": "address"
        }
      ],
      "stateMutability": "view",
      "type": "function"
    },
    {
      "inputs": [],
      "name": "poolManager",
      "outputs": [
        {
          "internalType": "contract PoolManager",
          "name": "",
          "type": "address"
        }
      ],
      "stateMutability": "view",
      "type": "function"
    },
    {
      "inputs": [
        {
          "internalType": "address",
          "name": "user",
          "type": "address"
        },
        {
          "internalType": "euint64",
          "name": "amount",
          "type": "bytes32"
        }
      ],
      "name": "recordRepayment",
      "outputs": [],
      "stateMutability": "nonpayable",
      "type": "function"
    },
    {
      "inputs": [],
      "name": "renounceOwnership",
      "outputs": [],
      "stateMutability": "nonpayable",
      "type": "function"
    },
    {
      "inputs": [
        {
          "internalType": "address",
          "name": "_creditOracle",
          "type": "address"
        }
      ],
      "name": "setCreditOracle",
      "outputs": [],
      "stateMutability": "nonpayable",
      "type": "function"
    },
    {
      "inputs": [
        {
          "internalType": "address",
          "name": "newOwner",
          "type": "address"
        }
      ],
      "name": "transferOwnership",
      "outputs": [],
      "stateMutability": "nonpayable",
      "type": "function"
    },
    {
      "inputs": [
        {
          "internalType": "address",
          "name": "user",
          "type": "address"
        },
        {
          "internalType": "int32",
          "name": "delta",
          "type": "int32"
        },
        {
          "internalType": "string",
          "name": "reason",
          "type": "string"
        }
      ],
      "name": "updateScore",
      "outputs": [],
      "stateMutability": "nonpayable",
      "type": "function"
    }
  ],
  "bytecode": "0x608034620002e157620015d390601f38839003908101601f19168201906001600160401b03821183831017620002e55780839160409586948552833981010312620002e1576200005d6020620000558362000319565b920162000319565b903315620002ca575f8054336001600160a01b031980831682178455946001600160a01b0394909385939192918416907f8be0079c531659141344cd1fd0a4f28419497f9722a3daafe3b4186f6b6457e09080a3620000bb6200032e565b5046600103620001d257620000cf6200032e565b508186620000dc620002f9565b73ca2e8f1f656cd25c01f05d0b243ab1ecd4a8ffb6815273d82385dada1ae3e969447f20a3164f6213100e7560208201527377627828a55156b04ac0dc0eb30467f1a552bb03828201525b828151167f9e7b61f58c47dc699ac88507c4f5bb9f121c03808c5676a8078fe583e46497009089825416179055826020820151167f9e7b61f58c47dc699ac88507c4f5bb9f121c03808c5676a8078fe583e464970190898254161790550151167f9e7b61f58c47dc699ac88507c4f5bb9f121c03808c5676a8078fe583e4649702908682541617905516836001541617600155169060025416176002555161128890816200034b8239f35b4662aa36a7036200024457620001e76200032e565b508186620001f4620002f9565b73f0ffdc93b7e186bc2f8cb3daa75d86d1930a433d81527392c920834ec8941d2c77d188936e1f7a6f49c127602082015273be0e383937d564d7ff0bc3b46c51f0bf8d5c311a8282015262000127565b905046617a6903620002b95782906200025c6200032e565b50818662000269620002f9565b7350157cffd6bbfa2dece204a89ec419c23ef5755d815273e3a9105a3a932253a70f126eb1e3b589c643dd24602082015273be0e383937d564d7ff0bc3b46c51f0bf8d5c311a8282015262000127565b84516373cac13b60e01b8152600490fd5b8251631e4fbdf760e01b81525f6004820152602490fd5b5f80fd5b634e487b7160e01b5f52604160045260245ffd5b60405190606082016001600160401b03811183821017620002e557604052565b51906001600160a01b0382168203620002e157565b62000338620002f9565b905f82525f60208301525f604083015256fe608060409080825260049081361015610016575f80fd5b5f3560e01c90816308654a10146109755750806327ff6223146109595780632c333e251461057357806340b89270146105575780635976ab98146104f1578063715018a61461049a5780638927b0301461047e5780638da5cb5b14610457578063b7a8c1f3146101ba578063d47875d01461018e578063dc4c90d314610166578063e36922a51461013e5763f2fde38b146100af575f80fd5b3461013a57602036600319011261013a576100c8610d36565b906100d1610db9565b6001600160a01b039182169283156101245750505f54826bffffffffffffffffffffffff60a01b8216175f55167f8be0079c531659141344cd1fd0a4f28419497f9722a3daafe3b4186f6b6457e05f80a3005b905f6024925191631e4fbdf760e01b8352820152fd5b5f80fd5b823461013a575f36600319011261013a5760025490516001600160a01b039091168152602090f35b823461013a575f36600319011261013a5760015490516001600160a01b039091168152602090f35b823461013a57602036600319011261013a576020906101b36101ae610d36565b610d82565b9051908152f35b503461013a578160031936011261013a576101d3610d36565b6024356101de610db9565b60018060a01b039182811693845f52602092818452865f20805415155f14610451579061020b9154610e54565b855f52818452865f20555b845f52808352855f205482811561043d575b610231916111b7565b845f52808352855f2054801561042a575b61024d9030906111b7565b85519386850185811067ffffffffffffffff821117610417578752600f85526e52657061796d656e7420426f6e757360881b85850152839061028d610db9565b61029684610d82565b908115610403575b5f8051602061123383398151915254895163022f65e760e31b81529485019290925260056024850152600160f81b6044850152839160649183915f91165af180156103f9575f906103ca575b61030e91506103006102fa611023565b82610de4565b610308611023565b90610e0d565b845f526003835280865f205561032c8192821593846103bc576111b7565b906103a9575b61033d9030906111b7565b8351915f83528482840152805180958401525f5b85811061039557847fc7ddd9a34d7ae09f19664740bae0b870be9557c280fbf6acc9041595d325b8d0856060818a5f838284010152601f80199101168101030190a2005b818101830151848201606001528201610351565b5061033d6103b5610f82565b9050610332565b506103c5610f82565b6111b7565b508281813d83116103f2575b6103e08183610d4c565b8101031261013a5761030e90516102ea565b503d6103d6565b86513d5f823e3d90fd5b9050606461040f610f82565b91905061029e565b604183634e487b7160e01b5f525260245ffd5b5061024d610436611072565b9050610242565b610231915061044a611072565b9150610228565b55610216565b823461013a575f36600319011261013a575f5490516001600160a01b039091168152602090f35b823461013a575f36600319011261013a576020906101b3610f53565b3461013a575f36600319011261013a576104b2610db9565b5f80546001600160a01b0319811682556001600160a01b03167f8be0079c531659141344cd1fd0a4f28419497f9722a3daafe3b4186f6b6457e08280a3005b3461013a57602036600319011261013a5761050a610d36565b610512610db9565b600280546001600160a01b0319166001600160a01b039290921691821790557f3df77beb5db05fcdd70a30fc8adf3f83f9501b68579455adbd100b81809403945f80a2005b823461013a575f36600319011261013a576020905161012c8152f35b503461013a576020918260031936011261013a575f91610591610d36565b60018060a01b039182600154168451906306c790df60e11b825287828686169283868301528160249a8b925af19081156103f95786905f92610928575b5f935088876002541691835195869384926358887c7560e01b8452898401525af19182156103f95791879186935f905f936108ed575b508a6106108284610e54565b928a88849280811594856108d8575b61063090881592836108c857611111565b9691946108b8575b6108a2575b6064925f915f805160206112338339815191529e8f541691519a8b9687956303056db360e31b87528601528401528160448401525af1938415610898575f94610863575b509061069761069d93926106a395610697611072565b91610f12565b93610d82565b878115610851575b5f9160448488541691895194859384926307227b9160e21b84528984015260058d8401525af19081156103f9579088915f91610822575b50808515610812575b15610804575b606483875416955f89519788948593630afe14ad60e31b8552898501528c8401528160448401525af19283156107fa579087949392915f936107c9575b5082156107b2575b5f906064939454166103e887519889968795635a53accb60e01b8752860152840152600160f81b60448401525af19182156107a8575f92610779575b5051908152f35b9091508281813d83116107a1575b6107918183610d4c565b8101031261013a5751905f610772565b503d610787565b50513d5f823e3d90fd5b606492505f906107c0611072565b93509050610736565b8581969294503d83116107f3575b6107e18183610d4c565b8101031261013a57869351915f61072e565b503d6107d7565b85513d5f823e3d90fd5b5061080d611072565b6106f1565b945061081c611072565b946106eb565b82819392503d831161084a575b6108398183610d4c565b8101031261013a578790515f6106e2565b503d61082f565b5f915061085c610f82565b91506106ab565b935091908a84813d8311610891575b61087c8183610d4c565b8101031261013a579251929091610697610681565b503d610872565b89513d5f823e3d90fd5b505f6064926108af611072565b9150925061063d565b93506108c2611072565b93610638565b90506108d2611072565b90611111565b90506106306108e5611072565b91905061061f565b9450509150508582813d8311610921575b6109088183610d4c565b8101031261013a5781879189879451920151915f610604565b503d6108fe565b9150508782813d8311610952575b6109408183610d4c565b8101031261013a57855f9251916105ce565b503d610936565b823461013a575f36600319011261013a57602090516103528152f35b8391503461013a57606092606060031936011261013a57610994610d36565b9260249182358060030b9384820361013a576044359067ffffffffffffffff9586831161013a573660238401121561013a5782850135968711610d2357602094601f19976109e9878a601f840116018b610d4c565b808a523684828701011161013a5786815f928c8388819a019101378b010152610a10610db9565b610a198a610d82565b915f8112610b9557508115610b80575b5f6064929360018060a01b035f8051602061123383398151915254169063ffffffff8a51988997889663022f65e760e31b88528701521690840152600160f81b60448401525af18015610b76575f90610b47575b610a8d91506103006102fa611023565b945b6001600160a01b0381165f8181526003845284902087905595801591610aba9082846103bc576111b7565b90610b34575b610acb9030906111b7565b8151935f85528282860152805180938601525f5b838110610b2157867fc7ddd9a34d7ae09f19664740bae0b870be9557c280fbf6acc9041595d325b8d08760608189601f8a5f85828601015201168101030190a2005b8181018301518682018901528201610adf565b50610acb610b40610f82565b9050610ac0565b508181813d8311610b6f575b610b5d8183610d4c565b8101031261013a57610a8d9051610a7d565b503d610b53565b83513d5f823e3d90fd5b606491505f610b8d610f82565b925050610a29565b9350919350637fffffff198314610d115763ffffffff80935f03169161012c8301848111610cff575f8051602061123383398151915280548951639cd07acb60e01b81529690921683870152868601839052946001600160a01b03918890829060449082905f9087165af190811561089857908895949392915f91610ccd575b50610c209084610de4565b958315610cb4575b935f91606494955416908a5198899687956303056db360e31b8752860152840152600160f81b60448401525af18015610caa575f90610c7b575b610c759250610c6f610fd4565b91610e0d565b94610a8f565b508282813d8311610ca3575b610c918183610d4c565b8101031261013a57610c759151610c62565b503d610c87565b84513d5f823e3d90fd5b93606493505f91610cc3610f82565b9450915093610c28565b86819792503d8311610cf8575b610ce48183610d4c565b8101031261013a57610c2088955190610c15565b503d610cda565b85601183634e487b7160e01b5f52525ffd5b83601183634e487b7160e01b5f52525ffd5b50634e487b7160e01b5f90815260418552fd5b600435906001600160a01b038216820361013a57565b90601f8019910116810190811067ffffffffffffffff821117610d6e57604052565b634e487b7160e01b5f52604160045260245ffd5b6001600160a01b03165f8181526003602052604090205415610dad575f52600360205260405f205490565b50610db6610fd4565b90565b5f546001600160a01b03163303610dcc57565b60405163118cdaa760e01b8152336004820152602490fd5b90610db6918015610dff575b816111115790506108d2610f82565b50610e08610f82565b610df0565b90610db692918015610e46575b8115610e36575b82611165579150610e30610f82565b91611165565b9050610e40610f82565b90610e21565b50610e4f6110c5565b610e1a565b908115610f02575b8015610ef0575b602090606460018060a01b035f805160206112338339815191525416935f604051958694859363022f65e760e31b8552600485015260248401528160448401525af1908115610ee5575f91610eb6575090565b90506020813d602011610edd575b81610ed160209383610d4c565b8101031261013a575190565b3d9150610ec4565b6040513d5f823e3d90fd5b506020610efb611072565b9050610e63565b9050610f0c611072565b90610e5c565b90610db692918015610f45575b8115610f35575b82611165579150610e30611072565b9050610f3f611072565b90610f26565b50610f4e6110c5565b610f1f565b46600103610f6057600190565b4662aa36a703610f705761271190565b617a694614610f7d575f90565b5f1990565b5f8051602061123383398151915254604051639cd07acb60e01b81525f600480830182905260248301529091602091839160449183916001600160a01b03165af1908115610ee5575f91610eb6575090565b5f602060018060a01b035f805160206112338339815191525416604460405180948193639cd07acb60e01b835261012c6004840152600460248401525af1908115610ee5575f91610eb6575090565b5f602060018060a01b035f805160206112338339815191525416604460405180948193639cd07acb60e01b83526103526004840152600460248401525af1908115610ee5575f91610eb6575090565b5f8051602061123383398151915254604051639cd07acb60e01b81525f60048201819052600560248301529091602091839160449183916001600160a01b03165af1908115610ee5575f91610eb6575090565b5f602060018060a01b035f805160206112338339815191525416604460405180948193639cd07acb60e01b83528160048401528160248401525af1908115610ee5575f91610eb6575090565b90602090606460018060a01b035f805160206112338339815191525416935f60405195869485936385362ee760e01b8552600485015260248401528160448401525af1908115610ee5575f91610eb6575090565b9060646020925f60018060a01b035f8051602061123383398151915254166040519687958694637702dcff60e01b86526004860152602485015260448401525af1908115610ee5575f91610eb6575090565b7f9e7b61f58c47dc699ac88507c4f5bb9f121c03808c5676a8078fe583e4649700546001600160a01b0392908316803b1561013a575f92836044926040519687958694635ca4b5b160e11b865260048601521660248401525af18015610ee55761121e5750565b67ffffffffffffffff8111610d6e5760405256fe9e7b61f58c47dc699ac88507c4f5bb9f121c03808c5676a8078fe583e4649701a2646970667358221220bac4bd550f3e6e5b0295319d7872be4c744572567913d7e66f93c457385bf50964736f6c63430008180033",
  "linkReferences": {},
  "deployedLinkReferences": {}
}